:100000000C9476010C94BD010C94BD010C94BD01BF
:100010000C94BD010C94BD010C94BD010C94BD0168
:100020000C94BD010C94BD010C942A1C0C94FE1C74
:100030000C9456170C94BD010C94BD010C94BD0199
:100040000C94BD010C94BD010C94BD010C94BD0138
:100050000C94BD010C94AD170C94BD010C94BD0122
:100060000C94BD010C94BD010C94BD010C94BD0118
:100070000C94BD010C94BD010C94BD010C94BD0108
:100080000C94BD010C94BD010C94BD010C94BD01F8
:100090000C94BD010C94BD010C94BD010C94BD01E8
:1000A0000C94BD010C94BD010C94BD0129001E00EF
:1000B0001F0020002100220023002B0014001A0042
:1000C0000800150017001C00E000040016000700DF
:1000D00009000A000B00E1001D001B0006001900CA
:1000E000050011000000E200E30000002C000151B7
:1000F0002C0000004F005100520050000000000092
:1001000000002E002D0038003700360010000000DF
:100110002800340033000F000E000D0000003000F6
:100120002F00130012000C00180000002A003100FC
:10013000270026002500240035003A003B003C0043
:100140003D003E003F0001000100A9000100010048
:10015000010001000100AC00AA00AB000100010099
:100160005000010001000100010001000100010038
:100170000000010001000000AE000100A800000026
:100180000100010001000100010000000000010069
:100190000100010001000100010000000100010058
:1001A00001004F0051005200000001000100010059
:1001B000010001000100000045004400430042002E
:1001C000410040000C03570054004C003600320040
:1001D00000000C0353006100740031006C0000004B
:1001E0000403090409023B00020100A0FA0904000B
:1001F0000001030101000921110100012240000753
:1002000005810308000A0904010001030000000938
:100210002111010001227B000705820320000A1240
:10022000010002000000084C5332360100010200B8
:100230000105010902A10185020901A100050919B1
:10024000012908150025019508750181020501099C
:100250003009311581257F95027508810609381509
:1002600081257F950175088106050C0A38021581E4
:10027000257F950175088106C0C005010980A1018F
:10028000850319012AB700150126B70095017510DD
:100290008100C0050C0901A101850419012AA002F1
:1002A000150126A002950175108100C005010906FF
:1002B000A101050719E029E7150025019508750139
:1002C00081029501750881010507190029FF1500B4
:1002D00026FF009506750881000508190129059576
:1002E0000575019102950175039101C011241FBE8E
:1002F000CFEFDAE0DEBFCDBF04B603FE27C08091AA
:100300006D0290916E02A0916F02B09170028730E1
:10031000904BA740B04BD1F410926D0210926E0238
:1003200010926F021092700214BE84B7877F84BF50
:100330000FB6F894A8958091600088618093600062
:10034000109260000FBEE0E0F8E3099511E0A0E034
:10035000B1E0EEEAFEE302C005900D92AC38B107C1
:10036000D9F722E0ACE8B1E001C01D92AD36B2078A
:10037000E1F70E949E110C942D1F0C94000081E067
:10038000089581E008950C94C10108950C94C5016D
:100390001F93CF93DF9300D000D00F92CDB7DEB77D
:1003A00049835A836B8330918E0189819A813111FF
:1003B0001DC06623B9F02223A9F00E94BA07182FA6
:1003C000682F89819A810E94660769817A81812FCD
:1003D0000F900F900F900F900F90DF91CF911F9182
:1003E0000C94040E0E949207182FEFCF0E94BA07B8
:1003F00069817A81EDCFFC01262F40815181628194
:10040000738184810C94C80181E00895CF93DF93B8
:10041000EC0160E00E94FB01BE01DF91CF910C94E2
:10042000C6010E942B100E948E020C9450100C9456
:10043000531080E00C948F02089508950E940F06D7
:100440000E941D022FEF84E39CE0215080409040E9
:10045000E1F700C000000C94D1170F931F93CF93C6
:10046000DF938C0161E00E94FB01EC01B8010E9466
:10047000C3018823A9F1B801CE010E94F615882393
:1004800079F1B801CE010E943614882349F1B801F0
:10049000CE010E946015882319F1F801828188231A
:1004A00061F0CB35FDE5DF0721F170F4C115ECE516
:1004B000DE07A1F0CF3DDC45C9F0C801DF91CF9147
:1004C0001F910F910C94BF01CC358DE5D807A1F099
:1004D000CD35DD4591F70E94670CEFCF0E941E02DB
:1004E00080E0DF91CF911F910F9108950E94210D1F
:1004F000F7CF0E94700CE1CF0E94730CDECF0C94FA
:100500001C020E9452160E948F020C947F020895D2
:100510000C94870281E008950C948A020895CF9389
:10052000C82F0E9488028C2FCF910C948C02CF93FD
:10053000DF93CDB7DEB72B970FB6F894DEBF0FBEB3
:10054000CDBF4F83588769877A878B8761110E9457
:10055000B50B1E821D8285E0FE013796DE011196E5
:1005600001900D928A95E1F78C819D81892B89F408
:1005700049815A816B817C818D819E810E94D60A3E
:100580002B960FB6F894DEBF0FBECDBFDF91CF9193
:10059000089589819A8189238F3F51F3CE01019675
:1005A0000E9404028111E4CFEBCFFC018081918194
:1005B0000C94FC07CF93C82F882309F447C08CEF15
:1005C0008C0F813AA0F46C2F80910201909103016D
:1005D0000E94B516882329F08C2F0E94770B0E9469
:1005E000E50B8C2F0E94700BCF910C94E50B80E2F1
:1005F0008C0F883048F4C77081E001C0880FCA951D
:10060000EAF70E94980BF0CFEBE5EC0FE33040F4F3
:10061000F0E0E95BFE4F808190E0CF910C9477167B
:10062000E8E5EC0FE73150F4F0E0EE0FFF1FE75E76
:10063000FE4F80819181CF910C948D16CD3E30F08C
:100640008C2F0E942E12CF910C940113CF910895FC
:10065000882361F19CEF980F913A20F40E94770B68
:100660000C94E50B90E2980F983050F4877091E06D
:1006700001C0990F8A95EAF7892F0E949E0BF0CF4F
:100680009BE5980F933020F490E080E00C9477166F
:1006900098E5980F973120F490E080E00C948D1647
:1006A0008D3E20F00E9488120C94011308951F9330
:1006B000CF93DF93182FEB010E94DA02209731F4D9
:1006C000812FDF91CF911F910C9428038FE99FE038
:1006D0000197F1F700C000002197F0CF70E060E0D3
:1006E000893311F460E570E00C945703882321F0FE
:1006F0000E94980B0C94E50B0895882321F00E942A
:100700009E0B0C94E50B0895BF92CF92DF92EF926F
:10071000FF920F931F93CF93DF936C01D62FC72FB8
:10072000FC011281F580F2949FE0F9220E948E0B69
:10073000E82E8823B9F0E12E1123A1F08C2F807FC1
:10074000803421F080E28D0F8830B0F08091470234
:1007500082FD12C082E00E94360C0E948E0B91E056
:10076000E82EE926BC2EB2948FE0B822EB2DF0E003
:10077000E15DF04E0C94C41EE12CF4CF0C2F0F70F1
:10078000C07F11F00295007F112399F0002359F0EA
:1007900080E28D0F883010F0D11107C0802F0E94A9
:1007A000980B0E94E50B8D2F41C0802F0E94A80B53
:1007B000F8CF8D2F0E942803002309F43FC080E268
:1007C0008D0F883010F0D11104C0802F0E949E0B35
:1007D00003C0802F0E94AE0B0E94E50B2FC00C2F90
:1007E0000F70C07FC03211F00295007FDD2381F0D1
:1007F000D13009F469C0112309F473C0FF2009F452
:1008000069C0F601858180FFCECF8F70858362C07D
:100810008091470282FF38C0112359F0002329F04C
:10082000802F0E94980B0E94E50B80E00E94DA0264
:1008300005C080E00E9428030111C7CFEB2DE850CE
:10084000FF0B349720F40E9452160E948F02EE2074
:1008500009F482C10E948A0B80FD7EC1F6011282DA
:100860000E94840B0E94CA06C6010E94CD050E9408
:10087000840BDF91CF911F910F91FF90EF90DF904C
:10088000CF90BF900C94EB06112389F0F11006C0B5
:100890000E94C80B802B0E947603D0CFF1E0FF129C
:1008A000F7CF0E94C80B802B0E94CE0BC7CFF11050
:1008B00006C00E94DB0B802F0E947D03BFCF21E08A
:1008C000F21609F4BBCFF5CF112331F035E03F1517
:1008D00008F4B4CF802FDFCF84E08F1508F4AECFBB
:1008E000EACFFF2041F3D93349F4FFEF27EE33E09D
:1008F000F15020403040E1F700C000008D2F0E94F1
:1009000028039CCF8C2F86958695837069F0813063
:1009100009F094CF8D2F9C2F9370111102C090E09D
:1009200080E00E948D168ACF8D2F9C2F937011111D
:1009300002C090E080E00E94771680CF8D2F1123B7
:1009400029F00E942E120E94011378CF0E94881273
:10095000FACF8C2F837009F041C011116FCF4D2F4A
:10096000429546954770440F440F0D2F0F7010E0CD
:1009700030E020E0042E04C0000F111F221F331F9F
:100980000A94D2F760E070E0CB01D4FF0FC06FE0B3
:1009900070E080E090E004C0660F771F881F991F09
:1009A0004A95D2F76095709580959095C695C695B5
:1009B000C370602B712B822B932BC23049F058F4FB
:1009C000C13019F00E947C0639CF0E946A0636CFEA
:1009D0000E948E0633CF0E94680630CF8695112381
:1009E00011F08C2F8170882309F428CF4D2F429568
:1009F00046954770440F440F0D2F0F7010E030E004
:100A000020E0042E04C0000F111F221F331F0A9480
:100A1000D2F760E070E0CB01D4FF0FC06FE070E070
:100A200080E090E004C0660F771F881F991F4A95E9
:100A3000D2F76095709580959095C695C695C370D0
:100A4000602B712B822B932BC23049F058F4C130AC
:100A500019F00E944107F2CE0E942F07EFCE0E94AC
:100A60005307ECCE0E94A406E9CECF70112329F0E3
:100A70008C2F0E94CA068D2F0ECF8D2F0E947D03D2
:100A80008C2F0E94EB06DACED23F51F160F4D03FBA
:100A9000B9F0D13F81F0112309F449C0F11083CEA0
:100AA0008C2F8F7121C0D33F11F1D43FA1F78091DA
:100AB000470282FF26C08C2F8F71112311F314C0BF
:100AC000112349F084E08F1508F4B8CE8C2F8F7174
:100AD0000E940E07B3CE95E09F1508F4AFCEF6CF77
:100AE0008C2F8F711111CDCF0E94CA06A7CE112372
:100AF00029F08C2F8F710E94B506A0CE0E94B006FF
:100B00009DCE112349F0CF718C2F0E94CA0663E05D
:100B10008C2F0E941B0C92CE81E00E94360CE1E0EB
:100B2000EF1508F08BCE82E00E94360C87CEF110D4
:100B3000DACE8C2F8F71A5CF4C2F4F706D2FC60141
:100B40000E94000E0E942A0879CE4C2F4F706D2F04
:100B5000C6010E94030E72CEDF91CF911F910F91BB
:100B6000FF90EF90DF90CF90BF9008950F931F9369
:100B7000CF93DF93EC01688179818A810E94060816
:100B80008C010E9465070E946706B801CE01DF91C3
:100B9000CF911F910F910C948403CF93DF93EC01BD
:100BA0008B819C81892B29F08881998189238F3FB2
:100BB00059F4DF91CF910895CE010E94B605CE0180
:100BC000DF91CF910C940602CE010E942D0281117B
:100BD000F3CF0E948E0B882361F38A81882349F327
:100BE0008091470282FDE5CF82E0DF91CF910C94A6
:100BF000360C90E080E00E94771690E080E00E9442
:100C00008D160E94B50B0E94C50B0E94E50B0E9439
:100C100028140C9401130E947E0B0C94F9050E9479
:100C2000A50B0C940B06E92FE295EF70E250EE3025
:100C300070F4F0E0E15CF04E0C94C41E803F19F0BB
:100C400020F4883E20F481E00895843FE1F380E0C1
:100C50000895883EC0F3813FD1F7F5CF93FB8827F5
:100C600080F90895FC01808191810E94FC070C9419
:100C70001306CF93DF9300D000D00F92CDB7DEB72D
:100C80000F900F900F900F900F90DF91CF910895DC
:100C9000CF93DF9300D000D000D0CDB7DEB726963B
:100CA0000FB6F894DEBF0FBECDBFDF91CF91089590
:100CB00008950C9458060E9459066093C0017093E1
:100CC000C1018093C2019093C3010C94F90508956A
:100CD0000C945B060F931F930091C0011091C1010A
:100CE0002091C2013091C301602B712B822B932B79
:100CF0001F910F910C945B060F931F930091C001FD
:100D00001091C1012091C2013091C3016023712370
:100D1000822393231F910F910C945B060F931F93D3
:100D20000091C0011091C1012091C2013091C30115
:100D300060277127822793271F910F910C945B06E0
:100D40000C9458060C94A0060E94A2066093BC0165
:100D50007093BD018093BE019093BF010C94F9057F
:100D600060E070E0CB010C94A4060F931F9341E068
:100D700050E060E070E08A019B0104C0000F111F89
:100D8000221F331F8A95D2F7C901B8011F910F9115
:100D90000C94A4060F931F9341E050E060E070E0D4
:100DA00004C0440F551F661F771F8A95D2F78091A4
:100DB000BC019091BD01A091BE01B091BF018A011B
:100DC0009B01082B192B2A2B3B2BC901B8011F9122
:100DD0000F910C94A4060F931F9341E050E060E044
:100DE00070E004C0440F551F661F771F8A95D2F725
:100DF000CB01BA0160957095809590950091BC01EA
:100E00001091BD012091BE013091BF01602371237B
:100E1000822393231F910F910C94A4060F931F9389
:100E200041E050E060E070E004C0440F551F661FD1
:100E3000771F8A95D2F78091BC019091BD01A09156
:100E4000BE01B091BF018A019B01082719272A27FB
:100E50003B27C901B8011F910F910C94A4060F9371
:100E60001F930091BC011091BD012091BE013091F2
:100E7000BF01602B712B822B932B1F910F910C9430
:100E8000A4060F931F930091BC011091BD01209106
:100E9000BE013091BF0160237123822393231F91F0
:100EA0000F910C94A4060F931F930091BC01109115
:100EB000BD012091BE013091BF01602771278227BB
:100EC00093271F910F910C94A406089527E0929FF9
:100ED000800D1124982F977041E001C0440F9A951E
:100EE000EAF786958695869595E0899FF00111240D
:100EF000E157FE4F90E080E070E05191DF011197E3
:100F00009B01082E02C0369527950A94E2F72170BE
:100F100021952527242325272C930196853091059B
:100F200061F7089527E0929F800D1124982F977004
:100F300086958695869525E0829FF0011124E157DC
:100F4000FE4F50E040E080E0219130E0092E02C0E9
:100F5000369527950A94E2F721703327042E01C0B5
:100F6000220F0A94EAF7822B4F5F5F4F45305105FD
:100F700059F70895BF92CF92DF92EF92FF920F93AD
:100F80001F93CF93DF938C01C090BC01D090BD0123
:100F9000E090BE01F090BF018091C0019091C1012D
:100FA000A091C201B091C301C82AD92AEA2AFB2A1A
:100FB000CFE1D0E0BC2ED701C6010C2E04C0B695FF
:100FC000A795979587950A94D2F780FD0EC0219733
:100FD00088F7B12C8B2DDF91CF911F910F91FF904E
:100FE000EF90DF90CF90BF900895B8018C2F0E94B2
:100FF000330F019761F3EECFCF93DF93EC010E94A3
:10100000BA07BE01DF91CF910C94330F1F93CF939A
:10101000DF93EB0190918E01992331F0CB01DF91A9
:10102000CF911F910C94FC07882379F0CB010E948B
:10103000BA07182F682FCE010E946607BE01812FC4
:10104000DF91CF911F910C94330FCB010E94920737
:10105000182FF4CFEF92FF920F931F93CF93DF934C
:101060008C01892B81F0F12CEE24E394E801219688
:10107000F8018491843770F4843008F05FC08130C7
:10108000B1F08230A1F1DF91CF911F910F91FF90CC
:10109000EF900895853709F44CC008F43DC09CE7F3
:1010A000980F903780F78F770E94280349C00E5F12
:1010B0001F4FFE01849190E2980F983060F4877082
:1010C000FE2D01C0FF0F8A95EAF78F2F0E94B80B03
:1010D0000E94E50B02C00E94DA028F2D815030F28F
:1010E000EFE9FFE03197F1F700C00000F7CF0E5FA6
:1010F0001F4FFE01849190E2980F983050F4877052
:10110000FE2D01C0FF0F8A95EAF78F2F0E94BE0BBC
:10111000DFCF0E942803E1CF0E5F1F4FFE01C49175
:10112000C150D8F28FE99FE00197F1F700C00000AD
:10113000F7CF0E5F1F4FFE01F490CFCF0E94DA026F
:101140008E01CBCF1F93CF93DF93C091C40116E0E4
:101150008091C5018C1304C0DF91CF911F91089538
:10116000D0E01C9FF0011D9FF00D1124EA53FE4FAB
:101170004081518162817381848195810E944806FA
:101180002196C770E5CF4091F6015091F70160912B
:10119000F8017091F9018091FA019091FB010C9492
:1011A0004806FF920F931F93CF93DF938091FB012B
:1011B000807FD1F48091F8018823B1F08091C4013F
:1011C0001091C5016091F6017091F701A091F901AC
:1011D000B091FA01062F0723C0910001D0910101BF
:1011E00096E0F92E181306C0DF91CF911F910F9151
:1011F000FF90089590E0109711F00F3F19F40196B9
:101200008770F0CFF89E9001F99E300D1124F901FE
:10121000EA53FE4F41814713F2CF40814613EFCF8F
:1012200042814111ECCF438154814A1B5B0B4C1727
:101230005D0728F78091FB018F7080618093FB012F
:10124000F901E553FE4F80818F708061808386EFC6
:1012500091E00E94CD05DF91CF911F910F91FF90FA
:101260000C94A208AF92BF92CF92DF92EF92FF92BE
:101270000F931F93CF93DF93CDB7DEB761970FB670
:10128000F894DEBF0FBECDBF8C0185E0F801DE0112
:101290001D9601900D928A95E1F7F801E28086EFA4
:1012A000C82E81E0D82E6091F9017091FA01611584
:1012B000710509F45FC19091F6012091F701892F22
:1012C00082238F3F09F456C140815181A380B480AD
:1012D000F090F801F501E61BF70BBF01E09100016A
:1012E000F0910101FF2009F4F6C08091FB01382F35
:1012F000307F6E177F0708F0AFC0311179C0FE2C28
:10130000251323C0941321C0E1101FC08F7080618A
:101310008093FB010E94C308C6010E94CD05809105
:10132000FB01F80185838F2D61960FB6F894DEBF1F
:101330000FBECDBFDF91CF911F910F91FF90EF9026
:10134000DF90CF90BF90AF900895AB2829F0842F05
:1013500085238F3F09F027C180E0F82FF170DF2E41
:1013600080FF3CC08091C4012091C50136E082130A
:1013700015C04D875E878D859E850E94FC07292FAD
:1013800022952F702230F0F0243018F59F70F1F084
:10139000F8019581907FD1F4D12C1EC090E0389F48
:1013A000F001399FF00D1124EA53FE4F618165135E
:1013B00006C06081641303C062816E110FC0019684
:1013C0008770D5CF9F7011F0882331F3805E88300D
:1013D00018F3C8010E94CD05FD2CA5CFEE2009F41D
:1013E000A2CF8091FB0181608093FB01F12C9BCF08
:1013F000251306C0941304C0F801EE2009F487C039
:10140000C8010E943206882319F1EE2009F180916B
:10141000FB01803270F02091F6013091F70138879E
:101420002F831986BB86AA868C87CE0107960E94D9
:10143000CD0586E0F801A6EFB1E001900D928A9506
:10144000E1F70E94D1080E94C308FF24F3946BCFF8
:10145000C8010E94CD05F9CF311113C07A2DB98A88
:10146000A88A6E2D89890E94390686EF91E00E9434
:10147000CD0586E0F60111928A95E9F70E94C3082E
:10148000B5CF25130FC094130DC0E1100BC0F801A8
:101490008583C8010E94CD0586E0F60111928A95E8
:1014A000E9F741CFC8010E943206882389F2EE2075
:1014B00079F28091FB01803208F4BBCF2091F601D4
:1014C0003091F7013A8329831B82BD82AC828E83DF
:1014D000CE010196ACCF6E177F0708F03EC0FE2C00
:1014E000EE2009F4B5CF25132AC0941328C08091AB
:1014F000FB0180FD1BC0982F907FC1F0F801858310
:10150000903F31F0982F907F905F8F70892B85836B
:10151000C8010E94CD0586E0F801A6EFB1E0019078
:101520000D928A95E1F70E94C308FDCE86E0F8018E
:10153000A6EFB1E001900D928A95E1F7F4CEC801D3
:101540000E943206811175CF8091FB0181608093EA
:10155000FB01C8010E94CD05E6CE7A2DB98AA88A82
:101560006E2D89890E94390686E0F60111928A95CE
:10157000E9F7D9CFEE2009F46BCFC8010E943206FB
:10158000F82E882309F464CF86E0F801A6EFB1E0D5
:1015900001900D928A95E1F786EF91E00E94D502C5
:1015A0000E94D108C0CF81E08E25D7CE1F93CF9364
:1015B000DF93CDB7DEB72C970FB6F894DEBF0FBE22
:1015C000CDBF4F83588769877A878B879C87CE01E9
:1015D00007960E943209882369F08A859B85892BAA
:1015E00039F04F815885842F85238F3F09F071C0D2
:1015F00016E05FC086E0FE013796DE01119601908D
:101600000D928A95E1F78A859B85892B89F38F81D5
:10161000988589238F3F61F32091C50130E0C9018E
:101620000196877099274091C4014817190671F4F3
:101630000E940F061092C5011092C40186E0E6EFE9
:10164000F1E0DF011D928A95E9F7D2CF96E0929FF3
:10165000D001939FB00D1124AA53BE4FFE013196C5
:1016600001900D929A95E1F78093C5010E94A2081E
:10167000BFCF819FC00111248A539E4F0E9432091F
:101680008823E9F0E091C4011E9FF0011124EA5380
:10169000FE4F4081518162817381848195810E94D6
:1016A00048068091C40190E0019687709927809345
:1016B000C4018091C4019091C5018913DACF2C96A1
:1016C0000FB6F894DEBF0FBECDBFDF91CF911F9153
:1016D000089569857A858B859C850E94480688CF08
:1016E000682F80910201909103010C94EB16682FF2
:1016F00080910201909103010C94ED1680910201FA
:10170000909103010C94EF168091FC0185958595CD
:10171000859508958091FC01877008959091FC0152
:10172000977081E009F480E008958091080208959F
:1017300090910802892B80930802089580959091DA
:1017400008029823909308020895109208020895C1
:1017500090910702892B80930702089580959091BC
:1017600007029823909307020895109207020895A4
:1017700090910602892B809306020895809590919E
:101780000602982390930602089510920602089587
:101790008091FD01089508950C94CB0B9091470220
:1017A00092FD08C09091FD01981721F08093FD01F2
:1017B0000C94CC0B08958091FD01882329F01092A0
:1017C000FD0180E00C94CC0B0895E0910201F091B2
:1017D0000301809108028083E0910201F0910301EE
:1017E000808190910702892B8083E0910201F09122
:1017F0000301808190910602892B80839091FD01E5
:10180000992381F0E0910201F09103018081892BFD
:10181000808380910201909103010E94A31681119F
:101820000E94DB0B80910201909103010C945E16E3
:1018300008950C94180C9091470292FD10C098E006
:10184000899F90011124622B6093FC010E94CA06BB
:101850008091FC018595859585950C94190C0C94C7
:10186000CA061092FC0180E00C94190C9091FC01C6
:10187000809589238093FC01282F277091F4282FCD
:10188000082E000C330B9217130659F09091470263
:1018900092FD07C08595859585950E94EB060C9471
:1018A000310C08959091470292FB222720F92817C6
:1018B00069F080FB92F990934702809146029091E3
:1018C00047020E949D0C82E00C94360C0895809192
:1018D000470282FB882780F991E089270C94520CFB
:1018E00081E00C94520C80E00C94520C6FEF7FEF6F
:1018F00090E080E00C94171F90E080E00E94F31EBF
:1019000021E0893E9E4F09F020E0822F089582E079
:1019100090E00C94EB1E83E090E00C94EB1ECF93D0
:1019200084E090E00E94EB1EC82F82E290E00E94CB
:10193000EB1E982F8C2FCF910895CF93C92F682F2E
:1019400084E090E00E94F91E6C2F82E290E0CF913B
:101950000C94F91EAB01BC018FE090E00C940B1FBE
:10196000AB01BC0183E190E00C940B1F60E070E0E0
:10197000CB010C94B00C60E070E0CB010E94AA0C8B
:101980000C94B60C69EE7EEF90E080E00E94171F89
:1019900060E082E090E00E94F91E60E083E090E069
:1019A0000E94F91E1092C0011092C1011092C20152
:1019B0001092C30160E084E090E00E94F91E60E0B4
:1019C00082E290E00E94F91E60E085E090E00E94D3
:1019D000F91E60E086E090E00E94F91E6FEF87E05C
:1019E00090E00E94F91E40E050E0BA0188E090E0EB
:1019F0000E940B1F60E08DE090E00E94F91E40E025
:101A000050E0BA0188E190E00E940B1F60E087E19E
:101A100090E00E94F91E40E050E0BA018CE190E0B5
:101A20000E940B1F70E060E080E290E00E94171FB0
:101A300040E050E0BA0188E190E00E940B1F0C9456
:101A4000BB0C0C94C20C682F8EE090E00C94F91E35
:101A50000E949217609318027093190280931A02E1
:101A600090931B02609314027093150280931602E8
:101A700090931702089585B7806885BF85B7806801
:101A800085BF0895089508950C94420D08950C940F
:101A9000460D0E943B0D81E190E10E9448160E9494
:101AA000430D0C94440D81E008950C94530D08955A
:101AB00008950E94570D0C94580D0E947D170E94A6
:101AC000FB100C94470DAF92BF92CF92DF92EF9232
:101AD000FF920F931F93CF93DF93CDB7DEB72A9773
:101AE0000FB6F894DEBF0FBECDBF0E94101181115A
:101AF0000E94280D8AE0A82E82E0B82E10E000E0B7
:101B0000C02E802F0E945510E82EF501F1905F0144
:101B1000F81609F44DC080911C0281FD0E945B10F3
:101B20008F2D8E25D12CFF24F394982F9F21D9F14E
:101B30000E94550D882399F0DE82CF82EF2081E04C
:101B400009F480E088870E9486178160782F9A8741
:101B500089874E815F8168858A850E949702F80196
:101B6000E65FFD4F8081F826F0820E941C130E94E0
:101B7000521690910902891791F10E945216809392
:101B800009022A960FB6F894DEBF0FBECDBFDF91D3
:101B9000CF911F910F91FF90EF90DF90CF90BF906A
:101BA000AF900C948F02D394FF0CF7E0DF12BDCFFF
:101BB0000F5F1F4F0A30110509F0A2CF8FEF898305
:101BC0008A831B820E9486178160782F9D838C8375
:101BD00049815A816B818D810E949702C6CF2A96D6
:101BE0000FB6F894DEBF0FBECDBFDF91CF911F912E
:101BF0000F91FF90EF90DF90CF90BF90AF9008953E
:101C000090E080E008950895972F70E027E0929F7C
:101C1000600D711D1124FB0196E4899FE00DF11DFB
:101C20001124EE0FFF1FE455FF4F85919491089505
:101C3000FC01EE0FFF1FEC53FE4F85919491089528
:101C4000CF93DF930E94370FEC01811520E59207B7
:101C500008F042C0811530E4930708F0BDC0883E0B
:101C6000910528F5803E910508F09DC0883A9105C0
:101C700088F4853A910508F08FC08130910509F408
:101C800092C0009709F48FC0049708F08CC0D0E090
:101C9000C0E089C08F3B910508F489C0805C910940
:101CA000C03CD105A0F30E94180EEC017CC0811548
:101CB000904250F4C11581E0D80708F074C0CD3EC1
:101CC000D10528F3D0656FC0C11590E3D90708F09E
:101CD00079C0CE019F70E7CF811525E5920758F5B1
:101CE000811534E5930708F0A6C0811542E59407F5
:101CF00050F4C11581E5D80708F471C0DC2FCC275A
:101D0000C16FD06A50C0982F969596959E0123700A
:101D10003327C115D34508F07FC0C1E0D0E002C031
:101D2000CC0FDD1F2A95E2F720E2929FC00111241B
:101D3000C82BD92B6FC0C11589E5D807A8F4C115E8
:101D400098E5D90708F07CC0C11526E5D20708F050
:101D50009ECF8C2F0E94CE0FC82FD0E0DC2FCC2737
:101D6000CC27DF71D0621FC0C1153AE5D30708F454
:101D70006CC0CE0190568115904208F088CF8D2F0F
:101D80008F710E94CE0F90E0982F882788279F712F
:101D90009C012C2BE901E6CFC55AD0E0C858DE4F94
:101DA000C881D0E0D064CE01DF91CF910895C85AA8
:101DB000D0E0CC0FDD1FC65BDE4F0990D881C02D6F
:101DC000D464F1CFCE019927D3FF03C0EC01D86CC6
:101DD000EACFEC01D06CE7CFDF70D06AE4CFCE0160
:101DE000E4E096958795EA95E1F783702C2F269588
:101DF0002695237090E2299F90011124382B8C2F77
:101E00008370C1E0D0E002C0CC0FDD1F8A95E2F7FD
:101E1000C22BD32BDC68C7CFC1E0D0E002C0CC0F0F
:101E2000DD1F2A95E2F730E2939FC0011124C82BF1
:101E3000D92BDA68B8CFD82FCC27C46FD06AB3CFEC
:101E4000DC2FCC27C06FD06AAECF8C2F8F700E9452
:101E5000CE0F34E0D695C7953A95E1F7CF709C2F19
:101E6000EC01D069A0CF0E94040E0C94200E8238A1
:101E70009105B1F1B0F48133910509F475C048F4CE
:101E80008932910509F469C08A32910509F473C059
:101E900008958533910509F459C08933910501F1FD
:101EA0000895833E9105A9F138F4803E9105F9F03B
:101EB000823E910549F10895863E9105A9F1873E3C
:101EC0009105C9F1843E910519F52091470221FF42
:101ED0001FC08091460284FD14C087EE90E00895F3
:101EE000209146022370A1F080EE90E008952091A9
:101EF000460220FD47C03091470230FF09C024FF51
:101F000044C090E080E004C02091460222FDF7CF5B
:101F100008952091460222FD3BC03091470230FDDA
:101F2000E3CF24FFF5CFEDCF2091460223FFF0CF82
:101F300024FDE7CFD2CF2091460223FD2CC0309163
:101F4000470231FFEECF84EE90E0089520914602E3
:101F500025FFDECF89E290E008952091460225FF1B
:101F6000D7CF85E390E008952091460226FFD0CF99
:101F70008AE290E008952091460226FFC9CF81E3CE
:101F800090E0089589E390E0089583EE90E008954D
:101F900082EE90E0089586EE90E0089590914602DA
:101FA00092FF06C0282F28712830F9F4877F8460BB
:101FB00093FF06C0282F28712831F1F4877E8461B1
:101FC0002091470220FF06C0382F38713830D9F4ED
:101FD000877F816021FF06C0282F28712831D1F426
:101FE000877E816194FD877E0895282F2471243097
:101FF000F9F68B7F8860DCCF282F2471243101F71C
:102000008B7E8861DDCF382F3171313019F78E7FAB
:102010008860E0CF282F2171213121F78E7E8861E1
:10202000E1CF80E008950C94760C0E9410118FE3AC
:102030009CE90197F1F700C000000E94101180E0B8
:102040000E94551080FF04C00E9413100C94D117F9
:1020500008950C9415100E947C0C811102C00E94FE
:10206000210D0E94870C80931C020E948F0C90937C
:102070004702809346020E9429100E948B0C682F11
:1020800070E090E080E00E9468066091BC01709171
:10209000BD018091BE019091BF010C94A2060895EC
:1020A0000C944F1008950C945210E82FF0E0EE5A63
:1020B000FD4F80810895089580EA8A95F1F708958B
:1020C00000C008950C945C10F894E82FE295EF702E
:1020D000F0E031A1282F2F7081E090E001C0880F3F
:1020E0002A95EAF7982F9095932391A392A1892B93
:1020F00082A378940895CF93DF93C2E8D1E08991C9
:102100008F3F11F00E94641081E0CC38D807B9F7F6
:10211000CBE7D1E089918F3F11F00E94641081E0FC
:10212000C238D807B9F7DF91CF910895CF92DF92E7
:10213000EF92FF920F931F93CF93DF93EC01D62E74
:10214000062F10E0C8018E579E4F7C01FC01808154
:102150008F3F09F445C0F894E82FE295EF70F0E066
:1021600091A18F7021E030E001C0220F8A95EAF73B
:10217000892F822B81A382A12095282322A37894E2
:102180000E946010EBE7F1E042E851E031E0C12C41
:1021900021912F3F71F1A22FA295AF70B0E09096E0
:1021A0008C9190E02F7002C0959587952A95E2F763
:1021B00080FD1FC0832FC82A330F4E175F0741F7DA
:1021C000F70180818F3F11F00E94641061E0C1101F
:1021D00001C060E08D2D0E946210C00FD11FC88227
:1021E000DF91CF911F910F91FF90EF90DF90CF90F3
:1021F000089580E0E0CF0E947B108AE0E2E5F2E003
:10220000DF01982F1D929A95E9F7E8E4F2E0DF01EB
:102210001D928A95E9F78AE00E945B110C941102E5
:10222000FF920F931F93CF93DF93CDB7DEB72A971B
:102230000FB6F894DEBF0FBECDBF8E010F5F1F4FEC
:102240008AE0F80111928A95E9F7F12C6F2DC80107
:102250000E949610F394FAE0FF12F8CF4AE050E0A3
:10226000B80188E492E00E94DE1EFF24F3940097F8
:1022700009F4F12C892B41F08AE0F801A8E4B2E0DE
:1022800001900D928A95E1F72F2D4AE062E572E008
:1022900088E492E00E945C110E9417028F2D2A961A
:1022A0000FB6F894DEBF0FBECDBFDF91CF911F9167
:1022B0000F91FF9008950895FF920F931F93CF936E
:1022C000DF93F82E092F162FD72FC42F222349F082
:1022D00081E080931F020E94861790931E028093D4
:1022E0001D0280911F028823A1F080911D02909110
:1022F0001E020E949E17059760F0EF2DF02FA12F70
:10230000BD2FCE0FDF2FD11DEC17FD0741F410922A
:102310001F02DF91CF911F910F91FF90089581913E
:102320008D93F2CF0E9484190E945D0D0C94901938
:102330000E9494190E94630D0C94AE190E9410170C
:102340000E946B190E94490D0E9492110E949811DF
:102350000E94590DFBCF8091260280FF12C0609130
:10236000090185E0689FB001112475956795759501
:10237000679560387105A8F561157105A1F1862F83
:10238000089581FF09C06091090185E0689FB0014F
:10239000112475956795EDCF6091090182FD0AC002
:1023A000809125028823D1F0909108016091090164
:1023B000891728F085E0689FB0011124DACF869F45
:1023C000B001112485E0869F9001879F300D112474
:1023D000692F70E0C9010E94B01ECBCF65E070E0AC
:1023E000CECF8FE7089581E008958091260280FF87
:1023F0000CC06091050170E07595679575956795BE
:102400006115710549F1862F089581FF06C060911D
:10241000050170E075956795F3CF6091050182FD28
:102420000BC0909124029923A1F060910401809146
:102430000501961738F0682F70E06038710500F3D9
:102440008FE70895899FC001112470E00E94B01E9B
:10245000F4CF61E070E0D7CF81E008958D3E31F494
:102460000E94AB11819580932A0208958E3E19F443
:102470000E94AB11F8CF8F3E31F40E94AB118195D1
:10248000809329020895803F19F40E94AB11F8CF80
:10249000893F29F40E94F51180932B0208958A3F09
:1024A00021F40E94F5118195F7CF8B3F31F40E9402
:1024B000F511819580932C0208958C3F19F40E94A8
:1024C000F511F8CF9FE0980F983070F4815F990B69
:1024D00021E030E001C0220F8A95EAF780912802BE
:1024E000822B8093280208958D3F31F4809126023B
:1024F00081608093260208958E3F21F48091260208
:102500008260F7CF8F3FB9F7809126028460F1CFC8
:10251000409129028D3E59F480912A0287FF0DC017
:1025200010922A0241110BC01092250208C08E3E63
:1025300081F480912A0218169CF3442381F0809143
:102540002B0290912C02892B09F05AC01092240280
:1025500008958F3E49F447FFF0CF109229028091F1
:102560002A028111ECCFE0CF803F19F41416ACF3AE
:10257000E4CF90912B02893F29F41916F4F61092BA
:102580002B02DBCF8A3F19F497FFD7CFF8CF90917A
:102590002C028B3F29F497FFD0CF10922C02CDCF85
:1025A0008C3F19F41916CCF3C8CF9FE0980F9830E0
:1025B00090F4815F990B21E030E0B90102C0660F11
:1025C000771F8A95E2F7CB018095909128028923A5
:1025D00080932802B2CF8D3F31F4809126028E7F06
:1025E00080932602AACF8E3F21F4809126028D7F10
:1025F000F7CF8F3F09F0A1CF809126028B7FF0CFDC
:1026000008950E9486179C019091290280912A02C8
:10261000982B21F0309323022093220290912B02D9
:1026200080912C02982B21F03093210220932002DC
:1026300087E292E00C946916EF92FF920F931F933A
:10264000CF93DF9300D000D000D0CDB7DEB786E0C7
:10265000E7E2F2E0DE01119601900D928A95E1F732
:10266000E0902902F0902A0200912B0210912C0296
:102670001092290210922A0210922B0210922C0220
:102680008E2D8F2991F080912202909123020E9439
:102690009E17AC0190912502992309F43FC08091C7
:1026A0000A018417150608F447C0802F812B91F08A
:1026B00080912002909121020E949E17AC0190917E
:1026C0002402992309F477C0809106018417150626
:1026D00008F47FC08091290290912A02892B909161
:1026E0002B02892B90912C02892B11F00E9401134F
:1026F00086E0FE013196A7E2B2E001900D928A9544
:10270000E1F726960FB6F894DEBF0FBECDBFDF917E
:10271000CF911F910F91FF90EF90089520910B01A1
:102720008AE0289F900111242417350708F0BDCFB7
:102730009F5F9093250202C09F3FD1F7EE2059F092
:102740000E94AB119FEF1E140CF491E0899F802D25
:10275000112480932902FF2059F00E94AB119FEFB2
:102760001F140CF491E0899F802D112480932A027C
:1027700030912902332309F498CF20912A02222391
:1027800009F493CF45EB3403C0011124992359F088
:102790009093290245EB240390011124332339F04F
:1027A00030932A0282CF81E080932902F3CF81E027
:1027B00080932A027ACF209107018AE0289F900116
:1027C00011242417350708F085CF9F5F90932402CA
:1027D00002C09F3FD1F7002359F00E94F5119FEFEF
:1027E00010160CF491E0899F802D112480932B0208
:1027F000112359F00E94F5119FEF11160CF491E08E
:10280000899F802D112480932C0230912B02332339
:1028100009F460CF20912C02222309F45BCF45EB11
:102820003403C0011124992359F090932B0245EBF6
:10283000240390011124332339F030932C024ACF22
:1028400081E080932B02F3CF81E080932C0242CF72
:1028500086E0E7E2F2E0DF011D928A95E9F7109247
:10286000250210922402109226020895CF93DF933E
:10287000EC01FB018281882309F420C1C430FDE50D
:10288000DF07C8F5CB3F9CE5D90730F49E01225005
:102890003C452431310598F50E948F0C90934702F6
:1028A00080934602C031FCE5DF0709F4E0C008F080
:1028B00061C0C8309CE5D90709F4CBC088F5C430A5
:1028C000FCE5DF0709F4B3C0E8F4C2309CE5D907A2
:1028D00009F4A7C0809146028260C330DC4509F448
:1028E000A3C080914602909147020E949D0C0E94D5
:1028F0000F0680E004C0C236EDE5DE0769F2DF9125
:10290000CF910895809146028061C630FCE5DF07D3
:1029100009F48AC008F48FC080914602806284C0A6
:10292000809146028D7FCC309CE5D90709F47CC0AC
:1029300070F4809146028C60CA30FCE5DF0709F430
:1029400073C008F48AC0809146028E7F6DC080916A
:102950004602877FCE309CE5D90709F465C0809197
:1029600046028B7FCF30DC4508F45EC08091460282
:102970008F7E5AC0CD3FFCE5DF0709F474C040F5F7
:10298000C4319CE5D90709F48AC058F4C231FCE58A
:10299000DF0709F474C008F46EC080914602837F9B
:1029A00043C0CB3F9CE5D90709F449C008F04DC0AE
:1029B000C531DC4509F095CF8091460282FB99270D
:1029C00090F921E0922790FB82F990FB83F92CC0CB
:1029D000C1308DE5D80709F458C088F480914702CA
:1029E0008360CF3FECE5DE0769F1809147028D7F80
:1029F000C115DD4538F1809147028C7F23C0C3307B
:102A00008DE5D80709F458C008F452C0C236DD4538
:102A100009F067CF90914602892F8F7E94FF8061E5
:102A200003C0809146028160809346025ACF809114
:102A300046028460F9CF809146028860F5CF80918C
:102A400047028160809347024CCF809147028260A9
:102A5000F9CF809146028064E7CF0E940F068091F3
:102A600046028068E1CF809147028E7FEBCF809154
:102A700046028F7DD9CF809146028F7BD5CF0E94B1
:102A80000F06809146028F77CFCF80914702982F13
:102A9000909591708E7F892B90FB81F9D3CF0E9406
:102AA0000F0690914602892F97FB87F98058BCCF7B
:102AB00081E00E94230D15CF80E0FBCF81E01FCF86
:102AC000CF93DF93EB0186319C4511F50E94950B66
:102AD0009A81992399F08A7A91E009F490E0909391
:102AE0002D02811109C089E20E94700B0E94E50B42
:102AF00080E0DF91CF91089585E3F6CF80912D029C
:102B0000811104C089E20E94770BF0CF85E3FBCFEF
:102B100081E0EFCF0F931F93CF93DF93C42FD22F7A
:102B2000FC0182818823C9F0409330020E948617FD
:102B300090932F0280932E0280E28C0F883008F051
:102B400050C0C77081E001C0880FCA95EAF7DF91D5
:102B5000CF911F910F910C947603109130021413B2
:102B600035C080912E0290912F020E949E17883CC2
:102B7000910560F5C0E2CD0F1D17B9F080E2810F1D
:102B8000883040F4177081E001C0880F1A95EAF789
:102B90000E947D03C83048F481E09D2F977001C0EA
:102BA000880F9A95EAF70E947603802F0E946E03A1
:102BB000C830B8F4D77081E001C0880FDA95EAF721
:102BC000DF91CF911F910F910C947D0380E28C0FC8
:102BD000883038F4C77081E001C0880FCA95EAF7E1
:102BE000EFCFDF91CF911F910F9108950F939C012B
:102BF000CB01243F4CE5340759F1A8F4293DFCE50D
:102C00003F0701F12A3D4CE53407D1F1283D3C4511
:102C100091F406E221EE41EE68ED7CE50E948A1512
:102C200080E00F910895263FFCE53F07E9F0B0F002
:102C3000273F3C45F9F0FC018281882339F110924D
:102C40003002EFCF07E225EE45EE69ED7CE5E6CFF9
:102C500006E221EE40EE64EF7CE5E0CF07E225EEF0
:102C600044EE65EF7CE5DACF06E221EE42EE66EF58
:102C70007CE5D4CF07E225EE46EE67EF7CE5CECFCC
:102C800008E221E045EE6AED7CE5C8CF81E0C9CFDE
:102C900090938D0180938C010895909336028093D8
:102CA00035020895E0913502F0913602309721F017
:102CB0000190F081E02D099480E00895E0913502C3
:102CC000F0913602309721F00280F381E02D0994D3
:102CD0000895E0913502F0913602309739F022E004
:102CE000DC012C930480F581E02D09940895209156
:102CF0003302309134022817390771F0909334026F
:102D000080933302E0913502F0913602309721F042
:102D10000680F781E02D09940895209131023091C9
:102D200032022817390771F09093320280933102F2
:102D3000E0913502F0913602309721F00084F18560
:102D4000E02D099408959C012E5F3F4FAC01485F30
:102D50005F4F80E02417350709F40895F901919138
:102D60009F019923B9F38F5FF5CF662349F0FC01EA
:102D7000329608962191261729F0E817F907D1F71E
:102D800080E0089581E008959C01FC0132969FEF58
:102D900080E04191461751F09F3F19F4411101C065
:102DA000982F8F5F8630A9F79F3F09F40895290F68
:102DB000311D97FD3A95F90162830895FC01329621
:102DC00008962191261303C0DF0111971C92E81782
:102DD000F907B9F708950C94C4160C94DE16029600
:102DE00026E0FC0111922A95E9F7089508950C94C4
:102DF000F616811105C081E0809337020C94F71616
:102E000082E0FACF83E0809337020C94F7160C949B
:102E1000F91681E0809337020C94F7160C94091789
:102E2000089580916402843031F10E941902109259
:102E3000380288E190E020E40FB6F894A8958093DA
:102E400060000FBE2093600083B7817F846083BFE2
:102E500083B7816083BF7894889583B78E7F83BF63
:102E60000FB6F894A8958091600088618093600007
:102E7000109260000FBE089508950895CF930E94A8
:102E80003C170E9410110E943D17C0E08C2F0E9439
:102E90005510811105C0CF5FCA30C1F7CF91089599
:102EA00081E0FCCF0E940F060C9481021F921FB696
:102EB0001F9211248F939F93AF93BF9380913802F9
:102EC000811113C080915C0290915D02A0915E021D
:102ED000B0915F024196A11DB11D80935C02909359
:102EE0005D02A0935E02B0935F02BF91AF919F918C
:102EF0008F911F901FBE1F90189582E084BD93E0B4
:102F000095BD9AEF97BD80936E0008952FB7F89402
:102F100080915C0290915D02A0915E02B0915F028F
:102F20002FBF08952FB7F89460915C0270915D02F5
:102F300080915E0290915F022FBF08959C014FB770
:102F4000F89480915C0290915D02A0915E02B09134
:102F50005F024FBF821B930B089578941F921FB698
:102F60001F9211248F939F93AF93BF9380915C0224
:102F700090915D02A0915E02B0915F020196A11D49
:102F8000B11D80935C0290935D02A0935E02B093AA
:102F90005F02BF91AF919F918F911F901FBE1F90B5
:102FA000189581E08093E00080E28093D800109231
:102FB000C9008FE19EE40197F1F700C0000087E0AF
:102FC00090EBDC0180936D0290936E02A0936F02F0
:102FD000B093700288E19CE00FB6F894A8958093B6
:102FE00060000FBE90936000FFCF8091440208956F
:102FF00008959C0182E08093E9009FEF8091E800B2
:10300000915085FD06C085ED8A95F1F7000091117C
:10301000F5CF8091E80085FF0CC050E040E066E00D
:1030200070E0C9010E941F1A8091E8008E7780939A
:10303000E8000895CF93DF93EC0181E08093E900ED
:103040008FEF9091E800815095FD06C095ED9A951F
:10305000F1F700008111F5CF8091E80085FF14C0E1
:1030600050E040E068E070E0CE010E941F1A8091BD
:10307000E8008E778093E80088E0FE01ACE3B2E0E0
:1030800001900D928A95E1F7DF91CF910895809399
:10309000390270933B0260933A028091640284305B
:1030A00001F582E08093E9008FEF9091E800815074
:1030B00095FD06C095ED9A95F1F700008111F5CFC9
:1030C0008091E80085FF0DC050E040E063E070E0D3
:1030D00089E392E00E941F1A8091E8008E77809326
:1030E000E8000895BC0184E00C944718BC0183E01B
:1030F0000C94471880916302811109C00E94AF1B94
:103100000E940C1C8091E20084608093E20008958C
:103110001092630208950C9409176091600281E097
:10312000611101C080E00C9402179091640281E06B
:10313000943009F080E0609160020C94071742E03F
:1031400061EC81E00E942B1B42E261EC82E00E9474
:103150002B1B9091640281E0943009F080E0609133
:1031600060020C94F91680916602833009F460C005
:1031700030F48130C9F1823009F49CC008958A305E
:1031800009F488C08B3009F46EC0893009F04FC053
:1031900080916502813209F04AC080916902909164
:1031A0006A02029708F043C08091E800877F80930D
:1031B000E8008091E80082FF36C09091F300809192
:1031C000F200029731F48091F100813011F08630E5
:1031D00021F48091F100809344028091E8008B7784
:1031E0008093E8000C945F1B80916502813AF9F4AA
:1031F0008091E800877F8093E80080916902909138
:103200006A02892B61F468E08CE392E070E00E942E
:103210006E1A8091E8008B778093E800089560E053
:1032200090E080E0F3CF809164028111C2CF0895D5
:1032300080916502813AD9F78091690290916A0282
:10324000892BA9F78091E800877F8093E80080911F
:10325000E80080FFFCCF809118018093F1008091FD
:10326000E8008E77BDCF80916502813201F78091B1
:10327000690290916A02892BD1F68091E800877FDC
:103280008093E8000E945F1B809167028093180181
:103290000C940F0680916502813249F68091E80016
:1032A000877F8093E8000E945F1B80916802809373
:1032B0004502089580916502813A09F0B8CF809166
:1032C000E800877F8093E8008091E80080FFFCCFD2
:1032D00080914502C2CF84B7877F84BF0FB6F89430
:1032E000A8958091600088618093600010926000D2
:1032F0000FBE80E890E00FB6F89480936100909341
:1033000061000FBE0C940E170E94AF1B0E940C1C94
:10331000E2EEF0E080818460808378940C94951EC6
:103320008CE091E00C944D16809164028530A9F4F4
:1033300080916402853011F00C9452170E9411178D
:10334000809162028823A1F30E943E17882381F3B3
:103350000E94091A0E940F06EBCF089508950C945D
:10336000B119292F33272330310519F168F42130A1
:10337000310509F444C02230310509F445C090E01C
:1033800080E030E020E025C02132310549F12232D1
:103390003105A9F780E490E02CEA32E0611571056F
:1033A000C1F08BE790E021E332E06130710589F0F4
:1033B000E6CF99278130910581F0009729F0029797
:1033C000F1F6E4ECF1E002C0E0EEF1E0849190E08F
:1033D0009F01FA01318320830895E2EDF1E0F6CFF9
:1033E00089E090E026EF31E06115710591F389E005
:1033F00090E02FE032E06130710559F3C0CF82E1F7
:1034000090E02FE132E0E5CF8BE390E024EE31E075
:10341000E0CF80E189BD82E189BD09B400FEFDCF26
:103420008091D8008F7D8093D8008091E0008260E9
:103430008093E0008091E00081FDFCCF0895AF9281
:10344000BF92CF92DF92FF920F931F93CF93DF93A0
:103450006C01EB018A010E947E1BF82E811123C0B2
:103460000115110539F0F80180819181C81BD90B34
:10347000C80ED91EB12CA12C2097A9F08091E8008C
:1034800085FD22C08091E8008E778093E8000115C9
:103490001105A1F0F80180819181A80EB91EB182B9
:1034A000A08285E0F82E8F2DDF91CF911F910F9193
:1034B000FF90DF90CF90BF90AF9008950E947E1B49
:1034C0008823D1F2F82EEFCFF60181916F0180931E
:1034D000F1002197FFEFAF1ABF0ACECFFC01809118
:1034E0006B0290916C0286179707A0F06115710529
:1034F00029F49091E8009E779093E80090E06115A0
:10350000710551F4911108C08091E80082FF34C028
:1035100080E00895BC01F2CF809164028823C1F15C
:103520008530C1F18091E80083FD30C08091E800D2
:1035300082FDEACF8091E80080FFE1CF8091F30027
:103540002091F200382F6115710519F028303105EE
:1035500058F091E02830310509F090E02091E80022
:103560002E772093E800CBCF81918093F1006150BA
:1035700071092F5F3F4FE7CF80916402882341F0AC
:10358000853041F08091E80083FFBECF81E008954F
:1035900082E0089583E00895FC0180916B02909190
:1035A0006C0286179707A0F06115710529F48091C8
:1035B000E8008E778093E80090E06115710551F482
:1035C000911108C08091E80082FF35C080E0089525
:1035D000BC01F2CF809164028823C9F18530C9F122
:1035E0008091E80083FD31C08091E80082FDEACF40
:1035F0008091E80080FFE1CF8091F3002091F200FC
:10360000382F6115710519F02830310558F091E017
:103610002830310509F090E08091E8008E778093A2
:10362000E800CBCF84918093F1003196615071090D
:103630002F5F3F4FE6CF80916402882341F08530B1
:1036400041F08091E80083FFBDCF81E0089582E0E2
:10365000089583E00895982F973028F08F70809315
:10366000E90081E008959093E900242F762F50E03F
:10367000981731F07091EC002091ED005091F0001E
:1036800021FD02C09F5FE8CF3091EB003E7F309379
:10369000EB003091ED003D7F3093ED003091EB0079
:1036A00031603093EB007093EC002093ED00509369
:1036B000F0002091EE0027FDE5CF80E00895809195
:1036C000650287FF13C08091E80082FF06C08091E9
:1036D000E8008B778093E80004C080916402811138
:1036E000F2CF0895809164028823D9F38091E80095
:1036F00080FFF8CF8091E8008E77ECCF2091E40036
:103700003091E50095E6A9012091EC00822F8170AF
:1037100020FF06C08091E80080FF06C080E0089589
:103720002091E80022FD1AC080916402882389F06C
:10373000853089F08091EB0085FD0FC02091E40079
:103740003091E50042175307F9F29150E1F684E019
:10375000089582E0089583E0089581E008950E942D
:103760001D1C0E94251CE0EEF0E0808181608083BA
:10377000E8EDF0E080818F77808319BCA7EDB0E0A1
:103780008C918E7F8C9380818F7E808310926302D8
:1037900008950F931F93CF93DF930E941D1C0E94E7
:1037A000251CC8EDD0E088818F7788838881806868
:1037B000888388818F7D888319BC1092640210925F
:1037C0006002109262021092610200EE10E0F801B5
:1037D00080818B7F808388818160888342E060E084
:1037E00080E00E942B1BE1EEF0E080818E7F8083E1
:1037F000E2EEF0E080818160808380818860808358
:10380000F80180818E7F8083888180618883DF9149
:10381000CF911F910F910895E8EDF0E080818F7EA8
:103820008083E7EDF0E080818160808384E082BF67
:1038300081E0809363020C94C91BE8EDF0E0808185
:103840008E7F80831092E20008951092DA00109229
:10385000E10008951F920F920FB60F9211242F933B
:103860003F934F935F936F937F938F939F93AF9308
:10387000BF93EF93FF938091E10082FF0BC0809193
:10388000E20082FF07C08091E1008B7F8093E1001E
:103890000E94941E8091DA0080FF19C08091D800A8
:1038A00080FF15C08091DA008E7F8093DA008091CE
:1038B000D90080FF96C080E189BD82E189BD09B44D
:1038C00000FEFDCF81E0809364020E947A1880910F
:1038D000E10080FF19C08091E20080FF15C0809157
:1038E000E2008E7F8093E2008091E200806180930D
:1038F000E2008091D80080628093D80019BC85E0F6
:10390000809364020E948D188091E10084FF2BC097
:103910008091E20084FF27C080E189BD82E189BDFA
:1039200089B5982F917080FFFBCF8091D8008F7D53
:103930008093D8008091E1008F7E8093E100809198
:10394000E2008F7E8093E2008091E20081608093AC
:10395000E20080916002882309F449C084E08093EA
:1039600064020E9495188091E10083FF29C0809134
:10397000E20083FF25C08091E100877F8093E10012
:1039800082E080936402109260028091E1008E7F59
:103990008093E1008091E2008E7F8093E20080912D
:1039A000E20080618093E20042E060E080E00E94FB
:1039B0002B1B8091F00088608093F0000E948B1890
:1039C000FF91EF91BF91AF919F918F917F916F91F7
:1039D0005F914F913F912F910F900FBE0F901F90CD
:1039E000189519BC109264020E94881870CF8091BB
:1039F000E30087FD93E090936402B3CF1F920F9290
:103A00000FB60F9211242F933F934F935F936F93B1
:103A10007F938F939F93AF93BF93CF93DF93EF9356
:103A2000FF93D091E900DF708091EC00C82FC17046
:103A300080FDC0E81092E9008091F000877F8093BC
:103A4000F00078940E94421D1092E9008091F000ED
:103A500088608093F000CD2BCF70C093E900FF9178
:103A6000EF91DF91CF91BF91AF919F918F917F9116
:103A70006F915F914F913F912F910F900FBE0F90DB
:103A80001F9018951F93CF93DF93CDB7DEB7AA97FA
:103A90000FB6F894DEBF0FBECDBF85E692E0209151
:103AA000F100FC012193CF01F2E08D369F07B9F7B9
:103AB0000E94B3188091E80083FF1EC180916502C7
:103AC000909166029A3008F017C1E92FF0E0E35BAD
:103AD000F04E0C94C41E803899F0823809F00CC165
:103AE000809169028F70873008F006C18093E900E9
:103AF0008091EB0085FB882780F91092E90006C0D1
:103B00008091610290916202911182609091E8002F
:103B1000977F9093E8008093F1001092F1008091DC
:103B2000E8008E77E5C0882309F4D3C0823009F01D
:103B3000E3C0809167028111D6C0809169028F70C5
:103B40002FEF280F263008F0D7C08093E90020918E
:103B5000EB0020FFC8C0933031F48091EB0080620D
:103B60008093EB00C0C09091EB0090619093EB00CC
:103B700021E030E001C0220F8A95EAF72093EA00A5
:103B80001092EA008091EB008860EACF8111B4C006
:103B9000109167021F778091E3008078812B8093DA
:103BA000E3008091E800877F8093E8000E945F1B1C
:103BB0008091E80080FFFCCF8091E30080688093D3
:103BC000E30082E0111183E08093640295C0805885
:103BD000823008F091C080916702909168028C3D1C
:103BE00023E09207A1F583E08A838AE289834FB7B5
:103BF000F894DE01139620E03EE051E2E32FF0E07E
:103C000050935700E49120FF03C0E295EF703F5FAF
:103C1000EF708E2F90E0EA30C0F0C7968D939D93A1
:103C20002F5F243159F74FBF8091E800877F809341
:103C3000E8006AE270E0CE0101960E946E1A80915F
:103C4000E8008B778093E80057C0C096E7CF60917B
:103C5000690270916A02AE014F5F5F4F0E94AF1917
:103C6000BC01892B09F448C09091E800977F90939C
:103C7000E80089819A810E94CC1AE1CF8038E1F571
:103C80008091E800877F8093E800809160028093B4
:103C9000F10045CF811130C090916702923060F5FC
:103CA0008091E800877F8093E800909360020E94F3
:103CB0005F1B80916002882311F084E005C0809131
:103CC000E30087FDFACF81E0809364020E949F1891
:103CD00013C080916702813079F481E0933009F05C
:103CE00080E0809362021092E9008091E800877F73
:103CF0008093E8000E945F1B8091E80083FF0AC068
:103D00008091E800877F8093E8008091EB008062DB
:103D10008093EB00AA960FB6F894DEBF0FBECDBF1E
:103D2000DF91CF911F9108950895CF938091640200
:103D30008823A1F0C091E900CF709091EC00892F09
:103D4000817090FD80E8C82B1092E9008091E80016
:103D500083FD0E94421DCF70C093E900CF9108956A
:103D600097FB072E16F4009407D077FD09D00E9428
:103D7000CA1E07FC05D03EF4909581959F4F08958B
:103D8000709561957F4F0895EE0FFF1F0590F49198
:103D9000E02D0994AA1BBB1B51E107C0AA1FBB1F42
:103DA000A617B70710F0A61BB70B881F991F5A95C7
:103DB000A9F780959095BC01CD010895FB01DC0128
:103DC00004C08D910190801921F441505040C8F7F2
:103DD000881B990B0895F999FECF92BD81BDF89A81
:103DE000992780B50895A8E1B0E042E050E00C9436
:103DF0001F1F262FF999FECF92BD81BDF89A01971A
:103E000000B4021639F01FBA20BD0FB6F894FA9A22
:103E1000F99A0FBE08950396272F0E94FA1E0E945A
:103E2000F91E252F0E94FA1E242F0C94FA1E0196CB
:103E3000272F0E94FA1E0C94F91EDC01CB01FC0115
:103E4000F999FECF06C0F2BDE1BDF89A319600B4F3
:103E50000D9241505040B8F70895F894FFCFBE033B
:103E6000BE03EF03EF0382049E041E041E04A90494
:103E70003505440544059C051E041E04A5051E06C3
:103E80001E062706270629062706270627061E06DA
:103E90001E062E06270627062E066B1D931D7C1E6A
:0E3EA000931D7C1EC61DE71D7C1E3E1E4A1E85
:103EAE00C800FE012808641E140A321EF5171A18DF
:103EBE00F91776187218F81701E200E900EA00B552
:103ECE0000B600B700CD008301CC008A01920194A8
:103EDE00012102230224022502260227022A02B30E
:103EEE0000B4006F007000818283E200E900EA00F6
:103EFE00B500B600B700CD008301CC008A01920157
:103F0E0094012102230224022502260227022A02FC
:103F1E00B300B4006F0070008182839192939094ED
:0C3F2E006697F5C63435F4323331F7F6EF
:00000001FF
