:100000000C947B020C94C2020C94C2020C94C202A7
:100010000C94C2020C94C2020C94C2020C94C20250
:100020000C94C2020C94C2020C94BD200C94912139
:100030000C942F1B0C94C2020C94C2020C94C202AA
:100040000C94C2020C94C2020C94C2020C94C20220
:100050000C94C2020C94861B0C94C2020C94C20233
:100060000C94C2020C94C2020C94C2020C94C20200
:100070000C94C2020C94C2020C94C2020C94C202F0
:100080000C94C2020C94C2020C94C2020C94C202E0
:100090000C94C2020C94C2020C94C2020C94C202D0
:1000A0000C94C2020C94C2020C94C20229001E00DD
:1000B0001F0020002100220023002B0014001A0042
:1000C0000800150017001C00E000040016000700DF
:1000D00009000A000B00E1001D001B0006001900CA
:1000E000050011000000E200E30000002C00A80061
:1000F0002C0000004F005100520050000100000091
:1001000000002E002D0038003700360010000000DF
:100110002800340033000F000E000D0000003000F6
:100120002F00130012000C00180000002A003100FC
:100130002700260025002400010001000100010025
:1001400001000100010001000100010001000100A7
:100150000100010001000100010001000100010097
:100160000100010001000100010001000100010087
:10017000000001000100000001000100010000007A
:100180000100010001000100010000000000010069
:100190000100010001000100010000000100010058
:1001A0000100010001000100000001000100010048
:1001B0000100010001000000010001000100010038
:1001C0000100010001000100010001000100010027
:1001D0000100010001000100010001000100010017
:1001E0000100010001000100010001000100010007
:1001F00001000100010001000100010000000100F8
:1002000001000000010001000100000001000100E8
:1002100001000100010000000000010001000100D8
:1002200001000100010000000100010001000100C7
:1002300001000100000001000100010001000100B7
:1002400001000000010001000100010001000100A7
:100250000100010001000100010001000100010096
:100260000100010001000100010001000100010086
:100270000100010001000100010001000100010076
:100280000100010001000100000001000100000068
:100290000100010001000000010001000100010057
:1002A0000100000000000100010001000100010048
:1002B0000100000001000100010001000100010037
:1002C0000000010001000100010001000100000028
:1002D0000100010001000100010001000000000018
:1002E000000000002A2B2800000000000000000091
:1002F0000000000000000029000000002C1E342037
:10030000212224342627252E362D3738271E1F205C
:100310002122232425263333362E37381F040506A1
:100320000708090A0B0C0D0E0F10111213141516E5
:100330001718191A1B1C1D2F3130232D35040506E3
:100340000708090A0B0C0D0E0F10111213141516C5
:100350001718191A1B1C1D2F3130354C00000000D6
:10036000000000000000000000000000000000008D
:10037000000000000000000000000000000000007D
:100380007E0F00D4FFFFFFC7000000780C0357006A
:1003900054004C003600320000000C035300610092
:1003A000740031006C0000000403090409025B00C2
:1003B000030100A0FA090400000103010100092162
:1003C000110100012240000705810308000A090409
:1003D0000100020300000009211101000122220096
:1003E000070582032000010705030320000109041B
:1003F00002000103000000092111010001227B001D
:100400000705840320000A12010002000000084CC6
:100410005332360100010200010660FF0961A101AB
:100420000962150026FF00952075088102096315F1
:100430000026FF00952075089102C005010902A160
:100440000185020901A100050919012908150025E6
:1004500001950875018102050109300931158125D1
:100460007F95027508810609381581257F950175EC
:10047000088106050C0A38021581257F950175084B
:100480008106C0C005010980A101850319012AB7B1
:1004900000150126B700950175108100C0050C09F3
:1004A00001A101850419012AA002150126A00295C7
:1004B0000175108100C005010906A101050719E0B9
:1004C00029E7150025019508750181029501750838
:1004D00081010507190029FF150026FF0095067503
:1004E00008810005081901290595057501910295F6
:1004F0000175039101C011241FBECFEFDAE0DEBF0A
:10050000CDBF04B603FE27C08091650290916602BC
:10051000A0916702B09168028730904BA740B04B22
:10052000D1F4109265021092660210926702109246
:10053000680214BE84B7877F84BF0FB6F894A8956D
:1005400080916000886180936000109260000FBE0F
:10055000E0E0F8E3099511E0A0E0B1E0E8E0F8E4BC
:1005600002C005900D92AC39B107D9F722E0ACE991
:10057000B1E001C01D92A536B207E1F70E949D12BD
:100580000C94C7230C94000081E0089581E0089545
:100590000C94C60208950C94CA021F93CF93DF9364
:1005A00000D000D00F92CDB7DEB749835A836B835A
:1005B00030919E0189819A8131111DC06623B9F065
:1005C0002223A9F00E94EB08182F682F89819A81B5
:1005D0000E94970869817A81812F0F900F900F9068
:1005E0000F900F90DF91CF911F910C946E180E9485
:1005F000C308182FEFCF0E94EB0869817A81EDCFF5
:10060000FC01262F408151816281738184810C9489
:10061000CD0281E00895CF93DF93EC0160E00E946A
:100620000003BE01DF91CF910C94CB02E1E0F0E03A
:10063000DF0102C0AA0FBB1F6A95E2F7BD01DF010F
:1006400002C0AA0FBB1F4A95E2F76A2B01C0EE0F4A
:100650002A95EAF7962F9823961302C08E2B0895B9
:10066000E0958E230895242F462F682F8091BA019C
:100670000E9416030C9454080E9434110E949004A6
:100680000C944F110C94521180E00C949104089535
:1006900008950E94EC070E9448032FEF84E39CE03A
:1006A000215080409040E1F700C000000C94AA1B4C
:1006B0000F931F93CF93DF938C0161E00E9400039F
:1006C000EC01B8010E948C158823D9F1B801CE0144
:1006D0000E94C8028823A9F1B801CE010E94CF1957
:1006E000882379F1B801CE010E947C16882349F154
:1006F000B801CE010E943919882319F1F8018281CD
:10070000882361F0CA35FDE5DF0721F170F4C115DA
:10071000ECE5DE07A1F0CE3DDC45C9F0C801DF9174
:10072000CF911F910F910C94C402CB358DE5D80762
:10073000A1F0CC35DD4591F70E94830DEFCF0E94EB
:10074000490380E0DF91CF911F910F9108950E949E
:100750003C0EF7CF0E948C0DE1CF0E948F0DDECFB3
:100760000C9447030E942B1A0E9491040C94B0032E
:10077000DF92EF92FF920F931F93CF93DF93E82FB7
:10078000F0E0E452FD4FD490282F2695269526952B
:1007900030E0F901E458FC4F0491877010E0082E16
:1007A00002C0159507950A94E2F701701127F90127
:1007B000E459FC4FE490F12C082E02C0F594E79424
:1007C0000A94E2F791E0E922FF24F901E45AFC4F90
:1007D000C491D0E002C0D595C7958A95E2F7C17063
:1007E000DD270115110519F081EE0E94DC04E114EA
:1007F000F10419F086EE0E94DC048D2D0E94700534
:10080000EF2819F086EE0E942A05012B19F081EEDF
:100810000E942A05CD2B51F08CE2DF91CF911F91E0
:100820000F91FF90EF90DF900C947005DF91CF91C6
:100830001F910F91FF90EF90DF900895EF92FF923C
:100840000F931F93CF93DF93EC01162F0AE088815B
:10085000882309F454C0813009F04EC08981813069
:1008600099F47E0122E0E20EF11C8A810E9470055B
:10087000E7012196812F815050F3EFE9FFE0319796
:10088000F1F700C00000F7CF823041F47E0182E032
:10089000E80EF11C8A810E94DC04EACF833041F427
:1008A0007E01E2E0EE0EF11C8A810E942A05E0CF73
:1008B000843011F02196DDCF2A81229690E080E0ED
:1008C000AE014F5F5F4F2053330B2A30310548F0A4
:1008D000019778F2EFE9FFE03197F1F700C00000EF
:1008E000F7CF089FB001099F700D1124C901860F31
:1008F000971F2981EA01E4CF0E94B803BACFDF91A4
:10090000CF911F910F91FF90EF90089560E00C94AC
:100910001E0408950C94890481E008950C948C04BD
:100920000895CF93C82F0E948A048C2FCF910C94E6
:100930008E04CF93DF93CDB7DEB72B970FB6F89425
:10094000DEBF0FBECDBF4F83588769877A878B87FD
:1009500061110E94D10C1E821D8285E0FE01379636
:10096000DE01119601900D928A95E1F78C819D81AF
:10097000892B89F449815A816B817C818D819E818B
:100980000E94F20B2B960FB6F894DEBF0FBECDBFC0
:10099000DF91CF91089589819A8189238F3F51F307
:1009A000CE0101960E9409038111E4CFEBCFFC0137
:1009B000808191810C941809CF93C82F882309F462
:1009C00047C08CEF8C0F813AA0F46C2F809102010C
:1009D000909103010E948E1A882329F08C2F0E9487
:1009E000930C0E94010D8C2F0E948C0CCF910C94C3
:1009F000010D80E28C0F883048F4C77081E001C09F
:100A0000880FCA95EAF70E94B40CF0CFEBE5EC0F23
:100A1000E33040F4F0E0E95BFE4F808190E0CF915D
:100A20000C94501AE8E5EC0FE73150F4F0E0EE0FCB
:100A3000FF1FE75EFE4F80819181CF910C94661A73
:100A4000C03F30F08C2F0E942D13CF910C940014D6
:100A5000CF910895882361F19CEF980F913A20F48B
:100A60000E94930C0C94010D90E2980F983050F472
:100A7000877091E001C0990F8A95EAF7892F0E944B
:100A8000BA0CF0CF9BE5980F933020F490E080E013
:100A90000C94501A98E5980F973120F490E080E07C
:100AA0000C94661A803F20F00E9487130C94001467
:100AB00008951F93CF93DF93182FEB010E94DC045E
:100AC000209731F4812FDF91CF911F910C942A054B
:100AD0008FE99FE00197F1F700C000002197F0CF68
:100AE00070E060E0893311F460E570E00C94590522
:100AF000882321F00E94B40C0C94010D08958823E2
:100B000021F00E94BA0C0C94010D0895BF92CF926F
:100B1000DF92EF92FF920F931F93CF93DF936C01BD
:100B2000D62FC72FFC011281F580F2949FE0F922A5
:100B30000E94AA0CE82E8823B9F0E12E1123A1F01F
:100B40008C2F807F803421F080E28D0F8830B0F0D0
:100B500080913F0282FD12C082E00E94520D0E94ED
:100B6000AA0C91E0E82EE926BC2EB2948FE0B822C0
:100B7000EB2DF0E0E753FC4D0C945723E12CF4CF20
:100B80000C2F0F70C07F11F00295007F112399F098
:100B9000002359F080E28D0F883010F0D11107C08A
:100BA000802F0E94B40C0E94010D8D2F41C0802F18
:100BB0000E94C40CF8CF8D2F0E942A05002309F44F
:100BC0003FC080E28D0F883010F0D11104C0802F1B
:100BD0000E94BA0C03C0802F0E94CA0C0E94010D13
:100BE0002FC00C2F0F70C07FC03211F00295007F14
:100BF000DD2381F0D13009F469C0112309F473C0F9
:100C0000FF2009F469C0F601858180FFCECF8F7087
:100C1000858362C080913F0282FF38C0112359F062
:100C2000002329F0802F0E94B40C0E94010D80E067
:100C30000E94DC0405C080E00E942A050111C7CF94
:100C4000EB2DE850FF0B349720F40E942B1A0E94E2
:100C50009104EE2009F45DC10E94A60C80FD59C1EB
:100C6000F60112820E94A00C0E946508C6010E9433
:100C7000AA070E94A00CDF91CF911F910F91FF90C6
:100C8000EF90DF90CF90BF900C947008112389F003
:100C9000F11006C00E94E40C802B0E947805D0CF92
:100CA000F1E0FF12F7CF0E94E40C802B0E94EA0CC7
:100CB000C7CFF11006C00E94F70C802F0E947F055D
:100CC000BFCF21E0F21609F4BBCFF5CF112331F0ED
:100CD00035E03F1508F4B4CF802FDFCF84E08F15C7
:100CE00008F4AECFEACFFF2041F3D93349F4FFEF48
:100CF00027EE33E0F15020403040E1F700C0000023
:100D00008D2F0E942A059CCF8C2F86958695837007
:100D100069F0813009F094CF8D2F9C2F93701111C1
:100D200002C090E080E00E94661A8ACF8D2F9C2F2F
:100D30009370111102C090E080E00E94501A80CFA1
:100D40008D2F112329F00E942D130E94001478CFBB
:100D50000E948713FACF8C2F837079F5111170CF11
:100D60004D2F429546954770440F440F8D2F8F703D
:100D7000042E01C0880F0A94EAF72D2F2071D4FFAA
:100D800007C02FE030E001C0220F4A95EAF7209516
:100D9000C695C695C370822BC23049F058F4C13055
:100DA00019F00E9446084CCF0E94410849CF0E948A
:100DB0004B0846CF0E943F0843CF8695112311F080
:100DC0008C2F8170882309F43BCF4D2F4295469597
:100DD0004770440F440F8D2F8F70042E01C0880F71
:100DE0000A94EAF72D2F2071D4FF07C02FE030E0DE
:100DF00001C0220F4A95EAF72095C695C695C370A3
:100E0000822BC23049F058F4C13019F00E948C088E
:100E100017CF0E94870814CF0E94910811CF0E941B
:100E200054080ECFCF70112329F08C2F0E94650833
:100E30008D2F33CF8D2F0E947F058C2F0E9470083D
:100E4000FFCED23F51F160F4D03FB9F0D13F81F0F5
:100E5000112309F449C0F110A8CE8C2F8F7121C045
:100E6000D33F11F1D43FA1F780913F0282FF26C00A
:100E70008C2F8F71112311F314C0112349F084E0DA
:100E80008F1508F4DDCE8C2F8F710E947C08D8CE90
:100E900095E09F1508F4D4CEF6CF8C2F8F711111E9
:100EA000CDCF0E946508CCCE112329F08C2F8F71F5
:100EB0000E945D08C5CE0E945A08C2CE112349F097
:100EC000CF718C2F0E94650863E08C2F0E94370D34
:100ED000B7CE81E00E94520DE1E0EF1508F0B0CEF0
:100EE00082E00E94520DACCEF110FFCE8C2F8F719C
:100EF000A5CF4C2F4F706D2FC6010E941D0F0E9471
:100F000046099ECE4C2F4F706D2FC6010E94200FB8
:100F100097CEDF91CF911F910F91FF90EF90DF90CF
:100F2000CF90BF9008950F931F93CF93DF93EC0161
:100F3000688179818A810E9422098C010E94960829
:100F40000E943E08B801CE01DF91CF911F910F9111
:100F50000C948605CF93DF93EC018B819C81892BC8
:100F600029F08881998189238F3F59F4DF91CF91AE
:100F70000895CE010E949307CE01DF91CF910C948A
:100F80000B03CE010E9458038111F3CF0E94AA0CDB
:100F9000882361F38A81882349F380913F0282FD8F
:100FA000E5CF82E0DF91CF910C94520D90E080E08C
:100FB0000E94501A90E080E00E94661A0E94D10CB4
:100FC0000E94E10C0E94010D0E9427150C94001450
:100FD0000E949A0C0C94D6070E94C10C0C94E8074E
:100FE000E92FE295EF70E250EE3070F4F0E0E75256
:100FF000FC4D0C945723803F19F020F4883E20F4D8
:1010000081E00895843FE1F380E00895883EC0F3D5
:10101000813FD1F7F5CF93FB882780F90895FC0134
:10102000808191810E9418090C94F007CF93DF937F
:1010300000D000D00F92CDB7DEB70F900F900F9079
:101040000F900F90DF91CF910895CF93DF9300D051
:1010500000D000D0CDB7DEB726960FB6F894DEBF2D
:101060000FBECDBFDF91CF91089508950C94350840
:101070000E9436088093BB010C94D60708950C9407
:1010800038089091BB01892B0C9438089091BB01D2
:1010900089230C9438089091BB0189270C94380857
:1010A0000C9435080C9450080E9452088093BA01A1
:1010B0000C94D60780E00C94540891E001C0990F7D
:1010C0008A95EAF7892F0C94540821E030E001C09A
:1010D000220F8A95EAF78091BA01822B0C9454086A
:1010E00021E030E001C0220F8A95EAF72095809137
:1010F000BA0182230C94540821E030E001C0220F91
:101100008A95EAF78091BA0182270C94540890914D
:10111000BA01892B0C9454089091BA0189230C943C
:1011200054089091BA0189270C945408089527E037
:10113000929F800D1124982F977041E001C0440FB9
:101140009A95EAF786958695869593E0899FF001B2
:101150001124E156FE4F90E080E070E05191DF01F4
:1011600011979B01082E02C0369527950A94E2F745
:10117000217021952527242325272C930196833040
:10118000910561F7089527E0929F800D1124982F13
:10119000977086958695869523E0829FF0011124AD
:1011A000E156FE4F50E040E080E0219130E0092E12
:1011B00002C0369527950A94E2F721703327042E52
:1011C00001C0220F0A94EAF7822B4F5F5F4F433032
:1011D000510559F70895CF92DF92FF920F931F9315
:1011E000CF93DF936C010091BA018091BB01082B72
:1011F000C7E0D0E010E0FC2EC8010C2E02C095958F
:1012000087950A94E2F780FD0CC02197A0F7F12C96
:101210008F2DDF91CF911F910F91FF90DF90CF9095
:101220000895B6018C2F0E943C10019771F3F0CF06
:10123000CF93DF93EC010E94EB08BE01DF91CF91C9
:101240000C943C101F93CF93DF93EB0190919E0180
:10125000992331F0CB01DF91CF911F910C941809A4
:10126000882379F0CB010E94EB08182F682FCE015C
:101270000E949708BE01812FDF91CF911F910C949E
:101280003C10CB010E94C308182FF4CFEF92FF92BD
:101290000F931F93CF93DF938C01892B81F0F12C57
:1012A000EE24E394E8012196F8018491843770F4E8
:1012B000843008F05FC08130B1F08230A1F1DF915D
:1012C000CF911F910F91FF90EF900895853709F40A
:1012D0004CC008F43DC09CE7980F903780F78F779B
:1012E0000E942A0549C00E5F1F4FFE01849190E2C3
:1012F000980F983060F48770FE2D01C0FF0F8A951B
:10130000EAF78F2F0E94D40C0E94010D02C00E94A8
:10131000DC048F2D815030F2EFE9FFE03197F1F7D7
:1013200000C00000F7CF0E5F1F4FFE01849190E2D6
:10133000980F983050F48770FE2D01C0FF0F8A95EA
:10134000EAF78F2F0E94DA0CDFCF0E942A05E1CF47
:101350000E5F1F4FFE01C491C150D8F28FE99FE08C
:101360000197F1F700C00000F7CF0E5F1F4FFE019D
:10137000F490CFCF0E94DC048E01CBCF1F93CF938C
:10138000DF93C091BC0116E08091BD018C1304C0B5
:10139000DF91CF911F910895D0E01C9FF0011D9F18
:1013A000F00D1124E254FE4F40815181628173811E
:1013B000848195810E9425082196C770E5CF4091D0
:1013C000EE015091EF016091F0017091F101809177
:1013D000F2019091F3010C942508FF920F931F9353
:1013E000CF93DF938091F301807FD1F48091F0015E
:1013F0008823B1F08091BC011091BD016091EE0194
:101400007091EF01A091F101B091F201062F072335
:10141000C0910001D091010196E0F92E181306C089
:10142000DF91CF911F910F91FF90089590E0109759
:1014300011F00F3F19F401968770F0CFF89E9001DC
:10144000F99E300D1124F901E254FE4F41814713FA
:10145000F2CF40814613EFCF42814111ECCF43815F
:1014600054814A1B5B0B4C175D0728F78091F301F1
:101470008F7080618093F301F901ED53FE4F8081FD
:101480008F70806180838EEE91E00E94AA07DF91C9
:10149000CF911F910F91FF900C94BE09AF92BF9214
:1014A000CF92DF92EF92FF920F931F93CF93DF9330
:1014B000CDB7DEB761970FB6F894DEBF0FBECDBFD4
:1014C0008C0185E0F801DE011D9601900D928A9550
:1014D000E1F7F801E2808EEEC82E81E0D82E60910F
:1014E000F1017091F2016115710509F45FC19091EC
:1014F000EE012091EF01892F82238F3F09F456C11D
:1015000040815181A380B480F090F001F501E61B89
:10151000F70BBF01E0910001F0910101FF2009F4F8
:10152000F6C08091F301382F307F6E177F0708F0E7
:10153000AFC0311179C0FE2C251323C0941321C0F4
:10154000E1101FC08F7080618093F3010E94DF095A
:10155000C6010E94AA078091F301F80185838F2DAF
:1015600061960FB6F894DEBF0FBECDBFDF91CF916D
:101570001F910F91FF90EF90DF90CF90BF90AF90B1
:101580000895AB2829F0842F85238F3F09F027C1C8
:1015900080E0F82FF170DF2E80FF3CC08091BC010D
:1015A0002091BD0136E0821315C04D875E878D8581
:1015B0009E850E941809292F22952F702230F0F065
:1015C000243018F59F70F1F0F8019581907FD1F4E7
:1015D000D12C1EC090E0389FF001399FF00D1124EE
:1015E000E254FE4F6181651306C06081641303C03D
:1015F00062816E110FC001968770D5CF9F7011F078
:10160000882331F3805E883018F3C8010E94AA074E
:10161000FD2CA5CFEE2009F4A2CF8091F3018160CB
:101620008093F301F12C9BCF251306C0941304C0C3
:10163000F801EE2009F487C0C8010E940F08882332
:1016400019F1EE2009F18091F301803270F02091C0
:10165000EE013091EF0138872F831986BB86AA8669
:101660008C87CE0107960E94AA0786E0F801AEEEAD
:10167000B1E001900D928A95E1F70E94ED090E9478
:10168000DF09FF24F3946BCFC8010E94AA07F9CFAA
:10169000311113C07A2DB98AA88A6E2D89890E94CA
:1016A00016088EEE91E00E94AA0786E0F6011192DC
:1016B0008A95E9F70E94DF09B5CF25130FC094136F
:1016C0000DC0E1100BC0F8018583C8010E94AA0774
:1016D00086E0F60111928A95E9F741CFC8010E9490
:1016E0000F08882389F2EE2079F28091F30180328D
:1016F00008F4BBCF2091EE013091EF013A832983AA
:101700001B82BD82AC828E83CE010196ACCF6E1758
:101710007F0708F03EC0FE2CEE2009F4B5CF25135C
:101720002AC0941328C08091F30180FD1BC0982F1C
:10173000907FC1F0F8018583903F31F0982F907F22
:10174000905F8F70892B8583C8010E94AA0786E06D
:10175000F801AEEEB1E001900D928A95E1F70E949A
:10176000DF09FDCE86E0F801AEEEB1E001900D920A
:101770008A95E1F7F4CEC8010E940F08811175CF58
:101780008091F30181608093F301C8010E94AA0750
:10179000E6CE7A2DB98AA88A6E2D89890E9416080C
:1017A00086E0F60111928A95E9F7D9CFEE2009F487
:1017B0006BCFC8010E940F08F82E882309F464CF6C
:1017C00086E0F801AEEEB1E001900D928A95E1F766
:1017D0008EEE91E00E94D7040E94ED09C0CF81E017
:1017E0008E25D7CE1F93CF93DF93CDB7DEB72C973F
:1017F0000FB6F894DEBF0FBECDBF4F835887698701
:101800007A878B879C87CE0107960E944E0A882391
:1018100069F08A859B85892B39F04F815885842F03
:1018200085238F3F09F071C016E05FC086E0FE019E
:101830003796DE01119601900D928A95E1F78A851F
:101840009B85892B89F38F81988589238F3F61F34D
:101850002091BD0130E0C901019687709927409120
:10186000BC014817190671F40E94EC071092BD01E3
:101870001092BC0186E0EEEEF1E0DF011D928A9548
:10188000E9F7D2CF96E0929FD001939FB00D11243B
:10189000A254BE4FFE01319601900D929A95E1F748
:1018A0008093BD010E94BE09BFCF819FC00111245A
:1018B00082549E4F0E944E0A8823E9F0E091BC01B9
:1018C0001E9FF0011124E254FE4F4081518162813C
:1018D0007381848195810E9425088091BC0190E0EC
:1018E0000196877099278093BC018091BC019091EB
:1018F000BD018913DACF2C960FB6F894DEBF0FBE68
:10190000CDBFDF91CF911F91089569857A858B8531
:101910009C850E94250888CF682F809102019091B4
:1019200003010C94C41A682F809102019091030165
:101930000C94C61A80910201909103010C94C81A6C
:101940008091F40185958595859508958091F401A0
:10195000877008959091F401977081E009F480E018
:10196000089580910002089590910002892B809340
:1019700000020895809590910002982390930002B0
:1019800008951092000208959091FF01892B809391
:10199000FF01089580959091FF0198239093FF0196
:1019A00008951092FF0108959091FE01892B809374
:1019B000FE01089580959091FE0198239093FE0179
:1019C00008951092FE0108958091F50108950895FB
:1019D0000C94E70C90913F0292FD08C09091F501A4
:1019E000981721F08093F5010C94E80C08958091EC
:1019F000F501882329F01092F50180E00C94E80CA1
:101A00000895E0910201F09103018091000280832A
:101A1000E0910201F091030180819091FF01892BF7
:101A20008083E0910201F091030180819091FE0199
:101A3000892B80839091F501992381F0E091020137
:101A4000F09103018081892B808380910201909124
:101A500003010E947C1A81110E94F70C80910201FF
:101A6000909103010C94371A08950C94340D9091C1
:101A70003F0292FD10C098E0899F90011124622BD3
:101A80006093F4010E9465088091F4018595859525
:101A900085950C94350D0C9465081092F40180E046
:101AA0000C94350D9091F401809589238093F40175
:101AB000282F277091F4282F082E000C330B921733
:101AC000130659F090913F0292FD07C085958595C8
:101AD00085950E9470080C944D0D089590913F02D9
:101AE00092FB222720F9281769F080FB92F9909346
:101AF0003F0280913E0290913F020E94B90D82E028
:101B00000C94520D089580913F0282FB882780F942
:101B100091E089270C946E0D81E00C946E0D80E0AD
:101B20000C946E0D6FEF7FEF90E080E00C94B1238A
:101B300090E080E00E948D23893E9E4F11F40C942A
:101B4000351580E0089582E090E00C94852383E0D1
:101B500090E00C948523CF9384E090E00E9485234D
:101B6000C82F82E290E00E948523982F8C2FCF917E
:101B70000895CF93C92F682F84E090E00E949323AB
:101B80006C2F82E290E0CF910C949323AB01BC01C7
:101B90008FE090E00C94A523AB01BC0183E190E0C1
:101BA0000C94A52360E070E0CB010C94CC0D60E0B8
:101BB00070E0CB010E94C60D0C94D20D69EE7EEF51
:101BC00090E080E00E94B12360E082E090E00E941B
:101BD000932360E083E090E00E9493231092BB0186
:101BE00060E084E090E00E94932360E082E290E075
:101BF0000E94932360E085E090E00E94932360E0E0
:101C000086E090E00E9493236FEF87E090E00E94CF
:101C1000932340E050E0BA0188E090E00E94A523C1
:101C200060E08DE090E00E94932340E050E0BA0134
:101C300088E190E00E94A52360E087E190E00E94A7
:101C4000932340E050E0BA018CE190E00E94A5238C
:101C500070E060E080E290E00E94B12340E050E05C
:101C6000BA0188E190E00E94A52380E00E944E1511
:101C70000E9474150C94D70D0C94DE0D682F8EE025
:101C800090E00C9493230E946B1B6093100270935E
:101C90001102809312029093130260930C027093CE
:101CA0000D0280930E0290930F02089585B780680D
:101CB00085BF85B7806885BF0895089508950C9401
:101CC0005D0E08950C94610E0E94560E8AE191E11A
:101CD0000E94211A0E945E0E0C945F0E81E008950E
:101CE0000C946E0E089508950E94720E0C94730E5B
:101CF0000E94561B0E9483150E94FA110C94620EDA
:101D0000AF92BF92CF92DF92EF92FF920F931F9309
:101D1000CF93DF93CDB7DEB72A970FB6F894DEBF27
:101D20000FBECDBF0E940F1281110E94430E82E0B0
:101D3000A82E82E0B82E10E000E0C02E802F0E9476
:101D40005411E82EF501F1905F01F81609F44DC029
:101D50008091140281FD0E945A118F2D8E25D12C65
:101D6000FF24F394982F9F21D9F10E94700E8823AD
:101D700099F0DE82CF82EF2081E009F480E088874D
:101D80000E945F1B8160782F9A8789874E815F81CF
:101D900068858A850E949904F801EE5FFD4F808175
:101DA000F826F0820E941B140E942B1A90910102C7
:101DB000891791F10E942B1A809301022A960FB67F
:101DC000F894DEBF0FBECDBFDF91CF911F910F9171
:101DD000FF90EF90DF90CF90BF90AF900C94910464
:101DE000D394FF0CF7E0DF12BDCF0F5F1F4F0A3017
:101DF000110509F0A2CF8FEF89838A831B820E948D
:101E00005F1B8160782F9D838C8349815A816B8110
:101E10008D810E949904C6CF2A960FB6F894DEBF32
:101E20000FBECDBFDF91CF911F910F91FF90EF902B
:101E3000DF90CF90BF90AF90089590E080E008953C
:101E40000895FC01EE0FFF1FE457FC4F859194911C
:101E50000895CF93DF930E944010EC01811520E597
:101E6000920708F042C0811530E4930708F0BDC026
:101E7000883E910528F5803E910508F09DC0883A7E
:101E8000910588F4853A910508F08FC0813091055D
:101E900009F492C0009709F48FC0049708F08CC031
:101EA000D0E0C0E089C08F3B910508F489C0805C18
:101EB0009109C03CD105A0F30E94210FEC017CC028
:101EC0008115904250F4C11581E0D80708F074C024
:101ED000C03FD10528F3D0656FC0C11590E3D90785
:101EE00008F079C0CE019F70E7CF811525E59207F4
:101EF00058F5811534E5930708F0A6C0811542E531
:101F0000940750F4C11581E5D80708F471C0DC2F9F
:101F1000CC27C16FD06A50C0982F969596959E0198
:101F200023703327C115D34508F07FC0C1E0D0E04E
:101F300002C0CC0FDD1F2A95E2F720E2929FC0017C
:101F40001124C82BD92B6FC0C11589E5D807A8F477
:101F5000C11598E5D90708F07CC0C11526E5D20760
:101F600008F09ECF8C2F0E94D710C82FD0E0DC2F16
:101F7000CC27CC27DF71D0621FC0C1153AE5D3074B
:101F800008F46CC0CE0190568115904208F088CFBD
:101F90008D2F8F710E94D71090E0982F8827882767
:101FA0009F719C012C2BE901E6CFC55AD0E0C8589F
:101FB000DE4FC881D0E0D064CE01DF91CF9108958B
:101FC000C85AD0E0CC0FDD1FC65BDE4F0990D88128
:101FD000C02DD464F1CFCE019927D3FF03C0EC010B
:101FE000D86CEACFEC01D06CE7CFDF70D06AE4CFD9
:101FF000CE01E4E096958795EA95E1F783702C2F62
:1020000026952695237090E2299F90011124382B64
:102010008C2F8370C1E0D0E002C0CC0FDD1F8A9509
:10202000E2F7C22BD32BDC68C7CFC1E0D0E002C0FF
:10203000CC0FDD1F2A95E2F730E2939FC0011124F7
:10204000C82BD92BDA68B8CFD82FCC27C46FD06A69
:10205000B3CFDC2FCC27C06FD06AAECF8C2F8F7060
:102060000E94D71034E0D695C7953A95E1F7CF7026
:102070009C2FEC01D069A0CF0E946E180C94290F00
:1020800082389105B1F1B0F48133910509F475C03E
:1020900048F48932910509F469C08A32910509F43E
:1020A00073C008958533910509F459C089339105AA
:1020B00001F10895833E9105A9F138F4803E910520
:1020C000F9F0823E910549F10895863E9105A9F106
:1020D000873E9105C9F1843E910519F520913F0293
:1020E00021FF1FC080913E0284FD14C087EE90E066
:1020F000089520913E022370A1F080EE90E00895B3
:1021000020913E0220FD47C030913F0230FF09C0C0
:1021100024FF44C090E080E004C020913E0222FDF4
:10212000F7CF089520913E0222FD3BC030913F023F
:1021300030FDE3CF24FFF5CFEDCF20913E0223FF0A
:10214000F0CF24FDE7CFD2CF20913E0223FD2CC05B
:1021500030913F0231FFEECF84EE90E00895209160
:102160003E0225FFDECF89E290E0089520913E02F5
:1021700025FFD7CF85E390E0089520913E0226FF0A
:10218000D0CF8AE290E0089520913E0226FFC9CF89
:1021900081E390E0089589E390E0089583EE90E074
:1021A000089582EE90E0089586EE90E00895909173
:1021B0003E0292FF06C0282F28712830F9F4877F4D
:1021C000846093FF06C0282F28712831F1F4877EA0
:1021D000846120913F0220FF06C0382F38713830CB
:1021E000D9F4877F816021FF06C0282F287128310C
:1021F000D1F4877E816194FD877E0895282F247114
:102200002430F9F68B7F8860DCCF282F24712431AD
:1022100001F78B7E8861DDCF382F3171313019F7AE
:102220008E7F8860E0CF282F2171213121F78E7EAB
:102230008861E1CF80E008950C94920D0E940F1206
:102240008FE39CE90197F1F700C000000E940F1294
:1022500080E00E94541180FF04C00E941C110C9465
:10226000AA1B08950C941E110E94980D811102C0A2
:102270000E943C0E0E94A30D809314020E94AB0D9D
:1022800090933F0280933E020E9432110E94A70D5C
:102290000E943F088091BA010C94520808950C9452
:1022A0004E1108950C945111E82FF0E0E65BFD4FBC
:1022B00080810895089580EA8A95F1F7089500C015
:1022C00008950C945B11F894E82FE295EF70F0E01C
:1022D00031A1282F2F7081E090E001C0880F2A954E
:1022E000EAF7982F9095932391A392A1892B82A32B
:1022F00078940895CF93DF93C2E8D1E089918F3F1E
:1023000011F00E94631181E0CC38D807B9F7CBE710
:10231000D1E089918F3F11F00E94631181E0C238B2
:10232000D807B9F7DF91CF910895CF92DF92EF925E
:10233000FF920F931F93CF93DF93EC01D62E062FBE
:1023400010E0C8018E579E4F7C01FC0180818F3FB9
:1023500009F445C0F894E82FE295EF70F0E091A100
:102360008F7021E030E001C0220F8A95EAF7892FB3
:10237000822B81A382A12095282322A378940E94F6
:102380005F11EBE7F1E042E851E031E0C12C21912F
:102390002F3F71F1A22FA295AF70B0E090968C9173
:1023A00090E02F7002C0959587952A95E2F780FD01
:1023B0001FC0832FC82A330F4E175F0741F7F7015D
:1023C00080818F3F11F00E94631161E0C11001C054
:1023D00060E08D2D0E946111C00FD11FC882DF9176
:1023E000CF911F910F91FF90EF90DF90CF900895C4
:1023F00080E0E0CF0E947A118AE0EAE4F2E0DF01B7
:10240000982F1D929A95E9F7E0E4F2E0DF011D9222
:102410008A95E9F78AE00E945A120C943C03FF92D5
:102420000F931F93CF93DF93CDB7DEB72A970FB6E5
:10243000F894DEBF0FBECDBF8E010F5F1F4F8AE045
:10244000F80111928A95E9F7F12C6F2DC8010E94CD
:102450009511F394FAE0FF12F8CF4AE050E0B8018A
:1024600080E492E00E947823FF24F394009709F41B
:10247000F12C892B41F08AE0F801A0E4B2E0019050
:102480000D928A95E1F72F2D4AE06AE472E080E42C
:1024900092E00E945B120E9442038F2D2A960FB693
:1024A000F894DEBF0FBECDBFDF91CF911F910F918A
:1024B000FF9008950895FF920F931F93CF93DF939A
:1024C000F82E092F162FD72FC42F222349F081E091
:1024D000809317020E945F1B90931602809315024F
:1024E000809117028823A1F0809115029091160225
:1024F0000E94771B059760F0EF2DF02FA12FBD2FC5
:10250000CE0FDF2FD11DEC17FD0741F410921702FB
:10251000DF91CF911F910F91FF90089581918D933D
:10252000F2CF0E94921D0E94780E0C949E1D0E9474
:10253000A21D0E94800E0C94BC1D0E94E91A0E94EC
:10254000791D0E94640E0E9491120E9497120E94AF
:10255000740EFBCF80911E0280FF12C060910901B2
:1025600085E0689FB001112475956795759567950D
:1025700060387105A8F561157105A1F1862F0895E0
:1025800081FF09C06091090185E0689FB0011124B5
:1025900075956795EDCF6091090182FD0AC0809124
:1025A0001D028823D1F090910801609109018917DB
:1025B00028F085E0689FB0011124DACF869FB00132
:1025C000112485E0869F9001879F300D1124692F8B
:1025D00070E0C9010E944323CBCF65E070E0CECF0D
:1025E0008FE7089581E0089580911E0280FF0CC05E
:1025F0006091050170E07595679575956795611512
:10260000710549F1862F089581FF06C0609105018B
:1026100070E075956795F3CF6091050182FD0BC061
:1026200090911C029923A1F0609104018091050111
:10263000961738F0682F70E06038710500F38FE767
:102640000895899FC001112470E00E944323F4CFB4
:1026500061E070E0D7CF81E00895803F31F40E94BF
:10266000AA128195809322020895813F19F40E9455
:10267000AA12F8CF823F31F40E94AA12819580936A
:1026800021020895833F19F40E94AA12F8CF893FCE
:1026900029F40E94F4128093230208958A3F21F4C2
:1026A0000E94F4128195F7CF8B3F31F40E94F4120F
:1026B00081958093240208958C3F19F40E94F412AE
:1026C000F8CF9CE0980F953070F4845F990B21E06F
:1026D00030E001C0220F8A95EAF780912002822B18
:1026E0008093200208958D3F31F480911E02816015
:1026F00080931E0208958E3F21F480911E02826015
:10270000F7CF8F3FB9F780911E028460F1CF4091DF
:102710002102803F59F48091220287FF0DC0109260
:10272000220241110BC010921D0208C0813F81F4AA
:102730008091220218169CF3442381F08091230299
:1027400090912402892B09F05AC010921C0208951E
:10275000823F49F447FFF0CF10922102809122027C
:102760008111ECCFE0CF833F19F41416ACF3E4CF22
:1027700090912302893F29F41916F4F6109223024E
:10278000DBCF8A3F19F497FFD7CFF8CF909124027F
:102790008B3F29F497FFD0CF10922402CDCF8C3FEE
:1027A00019F41916CCF3C8CF9CE0980F953090F42B
:1027B000845F990B21E030E0B90102C0660F771FFA
:1027C0008A95E2F7CB01809590912002892380932E
:1027D0002002B2CF8D3F31F480911E028E7F809314
:1027E0001E02AACF8E3F21F480911E028D7FF7CF6B
:1027F0008F3F09F0A1CF80911E028B7FF0CF08950B
:102800000E945F1B9C019091210280912202982BD3
:1028100021F030931B0220931A02909123028091A1
:102820002402982B21F030931902209318028FE193
:1028300092E00C94421AEF92FF920F931F93CF9362
:10284000DF9300D000D000D0CDB7DEB786E0EFE157
:10285000F2E0DE01119601900D928A95E1F7E09089
:102860002102F09022020091230210912402109282
:1028700021021092220210922302109224028E2D25
:102880008F2991F080911A0290911B020E94771B70
:10289000AC0190911D02992309F43FC080910A0177
:1028A0008417150608F447C0802F812B91F0809182
:1028B0001802909119020E94771BAC0190911C02A2
:1028C000992309F477C0809106018417150608F44E
:1028D0007FC08091210290912202892B9091230246
:1028E000892B90912402892B11F00E94001486E01C
:1028F000FE013196AFE1B2E001900D928A95E1F7C9
:1029000026960FB6F894DEBF0FBECDBFDF91CF91F4
:102910001F910F91FF90EF90089520910B018AE095
:10292000289F900111242417350708F0BDCF9F5F21
:1029300090931D0202C09F3FD1F7EE2059F00E94F4
:10294000AA129FEF1E140CF491E0899F802D112490
:1029500080932102FF2059F00E94AA129FEF1F14BA
:102960000CF491E0899F802D1124809322023091F4
:102970002102332309F498CF20912202222309F463
:1029800093CF45EB3403C0011124992359F0909360
:10299000210245EB240390011124332339F03093B5
:1029A000220282CF81E080932102F3CF81E08093E5
:1029B00022027ACF209107018AE0289F90011124FA
:1029C0002417350708F085CF9F5F90931C0202C043
:1029D0009F3FD1F7002359F00E94F4129FEF101689
:1029E0000CF491E0899F802D112480932302112300
:1029F00059F00E94F4129FEF11160CF491E0899F98
:102A0000802D11248093240230912302332309F472
:102A100060CF20912402222309F45BCF45EB3403DD
:102A2000C0011124992359F09093230245EB24030C
:102A300090011124332339F0309324024ACF81E0EE
:102A400080932302F3CF81E08093240242CF86E07B
:102A5000EFE1F2E0DF011D928A95E9F710921D0285
:102A600010921C0210921E02089583E290E00E94D0
:102A70008523823289F484E290E00E9485238130AC
:102A800059F485E290E00E94852391E0843009F0BA
:102A900090E0892F8170089580E0FCCFCF93C82FFC
:102AA0006FEF811162E283E290E00E9493236FEF67
:102AB000C11161E084E290E00E9493236FEFC111A5
:102AC00064E085E290E0CF910C949323089586E230
:102AD00090E00E948523682F70E090E080E00895E8
:102AE00086E290E00C94932380E00E944E1560E013
:102AF00070E0CB010E9470150E94E6170E94D21868
:102B000081E00C944E150E9466150E9435158111C6
:102B100002C00C9474150895CF93FB01C281CC239D
:102B200009F19C0122513F452031310520F58251A8
:102B30000E94E218C0E08C2FCF91089581E00E949E
:102B4000650843E062E081E00E943303F3CF81E057
:102B50000E94700843E062E081E00E943303EBCF03
:102B600082E0F6CF8031FFE59F0789F381319F45F1
:102B7000B9F3C1E0E0CF8031EFE59E07F9F2813192
:102B80009F45C9F682E0DBCF2FEFFC01208308953B
:102B9000EF92FF920F931F93CF93DF93EC01062FD9
:102BA000E881E150E33108F05EC0F0E0E951FC4D0E
:102BB0000C945723198289E08A83602FCE01DF911C
:102BC000CF911F910F91FF90EF900C94521C89812F
:102BD000823069F0833071F08130D9F40E946B1B30
:102BE0000E945D236A837B838C839D83E6CF0E9452
:102BF0006715F6CF7E0182E0E80EF11C10E0812F10
:102C00000E945411F70181937F011F5F1A30B9F7B9
:102C1000D4CF602FCE010E94C415CFCF89818230DE
:102C2000C1F76A817B818C819D810E945D230E9416
:102C30007015C3CF4B816A8189810E94B81798278C
:102C4000892798279D838C83B8CF2C813D8132279B
:102C5000232732274B816A8189810E94D117ADCF0A
:102C60000E94E617AACF8FEF8883A7CF0E947B1818
:102C70008983A3CF0E947D189827892798279A8354
:102C800089839BCF6B8170E089819A81AE014C5F13
:102C90005F4F9827892798270E9480188ECF6B81D5
:102CA00070E089819A81AE014C5F5F4F9827892738
:102CB00098270E94A71881CF0E94D2187ECF0E9429
:102CC000A617D6CF6B8170E089819A81AE014C5FE7
:102CD0005F4F9827892798270E941E186ECF6B8117
:102CE00070E089819A81AE014C5F5F4F98278927F8
:102CF00098270E94441861CFCF93DF93EC01FB012A
:102D00008281882309F420C1C330FDE5DF07C8F5BF
:102D1000CA3F9CE5D90730F49E0122503C4524313E
:102D2000310598F50E94AB0D90933F0280933E02CF
:102D3000C031FCE5DF0709F4E0C008F061C0C8302D
:102D40009CE5D90709F4CBC088F5C430FCE5DF0762
:102D500009F4B3C0E8F4C2309CE5D90709F4A7C070
:102D600080913E028260C330DC4509F4A3C08091AB
:102D70003E0290913F020E94B90D0E94EC0780E054
:102D800004C0C136EDE5DE0769F2DF91CF91089509
:102D900080913E028061C630FCE5DF0709F48AC0FD
:102DA00008F48FC080913E02806284C080913E0210
:102DB0008D7FCC309CE5D90709F47CC070F48091FC
:102DC0003E028C60CA30FCE5DF0709F473C008F4EA
:102DD0008AC080913E028E7F6DC080913E02877FC7
:102DE000CE309CE5D90709F465C080913E028B7F07
:102DF000CF30DC4508F45EC080913E028F7E5AC021
:102E0000CC3FFCE5DF0709F474C040F5C4319CE514
:102E1000D90709F48AC058F4C231FCE5DF0709F488
:102E200074C008F46EC080913E02837F43C0CA3FE5
:102E30009CE5D90709F449C008F04DC0C531DC450F
:102E400009F095CF80913E0282FB992790F921E00D
:102E5000922790FB82F990FB83F92CC0C1158DE578
:102E6000D80709F458C088F480913F028360CE3FB0
:102E7000ECE5DE0769F180913F028D7FCF3FDC45B5
:102E800038F180913F028C7F23C0C2308DE5D80796
:102E900009F458C008F452C0C136DD4509F067CFC7
:102EA00090913E02892F8F7E94FF806103C08091B4
:102EB0003E02816080933E025ACF80913E02846040
:102EC000F9CF80913E028860F5CF80913F0281600A
:102ED00080933F024CCF80913F028260F9CF809176
:102EE0003E028064E7CF0E94EC0780913E0280683A
:102EF000E1CF80913F028E7FEBCF80913E028F7DAC
:102F0000D9CF80913E028F7BD5CF0E94EC07809174
:102F10003E028F77CFCF80913F02982F909591708E
:102F20008E7F892B90FB81F9D3CF0E94EC07909183
:102F30003E02892F97FB87F98058BCCF81E00E9421
:102F40003E0E15CF80E0FBCF81E01FCF84E00895D7
:102F500050E0440F551F9EE0699F400D511D112404
:102F60009CE8899F400D511D1124CA018796089540
:102F70000F931F93CF93DF930E94A8178C010E9499
:102F80008523C82FD0E0DC2FCC27C80101960E94F2
:102F900085239E01282BC901DF91CF911F910F91AD
:102FA00008950F931F93CF93DF93122F032F0E9447
:102FB000A817EC01602F0E949323612FCE01019688
:102FC000DF91CF911F910F910C949323AF92BF92F9
:102FD000CF92DF92EF92FF921F93CF93DF938CEA11
:102FE000C82E80E0D82ED0E07601C0E014C0F501F4
:102FF00025913491412F6C2F8D2F0E94D11782E0A3
:10300000A80EB11C1F5F173091F78EE0E80EF11C7F
:10301000CF5FCA3019F0570110E0E9CFDF5F8CE8CD
:10302000C80ED11CD43001F7DF91CF911F91FF90D2
:10303000EF90DF90CF90BF90AF900895EF92FF9206
:103040000F931F93CF93DF93EC018A017C01E60E6F
:10305000F71ECE018796CE15DF0539F4DF91CF91AB
:103060001F910F91FF90EF900895C03322E0D20797
:1030700040F40E948523F80180830F5F1F4F219643
:10308000E8CFF8011082F9CFCF92DF92EF92FF9252
:103090000F931F93CF93DF937C016A018C01060F7E
:1030A000171FEC01CE018796C017D10749F4DF91B5
:1030B000CF911F910F91FF90EF90DF90CF900895E7
:1030C000C03322E0D20740F4FE01EE19FF09EC0DF7
:1030D000FD1D60810E9493232196E4CF462F84300A
:1030E00038F47A3028F4673018F4672F0C94B81746
:1030F00090E080E0089580E1089589EA91E00895E4
:10310000EF92FF920F931F93CF93DF93EC018A010D
:103110007C01E60EF71ECE01895A9D4FCE15DF05C4
:1031200039F4DF91CF911F910F91FF90EF900895A7
:10313000C93A21E0D20740F40E948523F801808338
:103140000F5F1F4F2196E7CFF8011082F9CFCF9282
:10315000DF92EF92FF920F931F93CF93DF937C0147
:103160006A018C01060F171FEC01CE01895A9D4F91
:10317000C017D10749F4DF91CF911F910F91FF90B4
:10318000EF90DF90CF900895C93A21E0D20740F444
:10319000FE01EE19FF09EC0DFD1D60810E949323D5
:1031A0002196E3CFCF93DF93C7E5D2E060E0CE0175
:1031B0000E9493232196C11584E0D807B9F7DF91C7
:1031C000CF910895DF92EF92FF920F931F93CF93C9
:1031D000DF9300D000D0CDB7DEB7F82E8FE08F158B
:1031E00040F08FEF93E00E94852307E512E08823EB
:1031F000C1F00F900F900F900F90DF91CF911F9122
:103200000F91FF90EF90DF900895011584E018076B
:1032100081F3C8010E948523811101C0FA940F5FD8
:103220001F4FF110F2CF19821A821B821C82DD24FB
:10323000D39478018FEFE81AF80AC8010E94852319
:1032400089831A828823A9F29FEF980F933078F42C
:103250008A83D9820E5F1F4FC7010E9485238B830B
:10326000882339F2CE0101960E948604E2CF8701BD
:10327000F9CFCF93DF93EB0186319C4511F50E9486
:10328000B10C9A81992399F08A7A91E009F490E03F
:1032900090932502811109C089E20E948C0C0E9442
:1032A000010D80E0DF91CF91089585E3F6CF809105
:1032B0002502811104C089E20E94930CF0CF85E3BE
:1032C000FBCF81E0EFCF0F931F93CF93DF93C42FFA
:1032D000D22FFC0182818823C9F0409328020E94EA
:1032E0005F1B909327028093260280E28C0F883028
:1032F00008F050C0C77081E001C0880FCA95EAF796
:10330000DF91CF911F910F910C94780510912802B5
:10331000141335C080912602909127020E94771BDA
:10332000883C910560F5C0E2CD0F1D17B9F080E231
:10333000810F883040F4177081E001C0880F1A9522
:10334000EAF70E947F05C83048F481E09D2F97700E
:1033500001C0880F9A95EAF70E947805802F0E9495
:103360007005C830B8F4D77081E001C0880FDA95D5
:10337000EAF7DF91CF911F910F910C947F0580E2C6
:103380008C0F883038F4C77081E001C0880FCA956F
:10339000EAF7EFCFDF91CF911F910F9108950F932F
:1033A0009C01CB01233F4CE5340759F1A8F4283D9B
:1033B000FCE53F0701F1293D4CE53407D1F1273DFC
:1033C0003C4591F406E221EE41EE67ED7CE50E947A
:1033D000631980E00F910895253FFCE53F07E9F070
:1033E000B0F0263F3C45F9F0FC018281882339F199
:1033F00010922802EFCF07E225EE45EE68ED7CE55E
:10340000E6CF06E221EE40EE63EF7CE5E0CF07E297
:1034100025EE44EE64EF7CE5DACF06E221EE42EEE3
:1034200065EF7CE5D4CF07E225EE46EE66EF7CE55E
:10343000CECF08E221E045EE69ED7CE5C8CF81E022
:10344000C9CF90939D0180939C01089590932E0283
:1034500080932D020895E0912D02F0912E02309775
:1034600021F00190F081E02D099480E00895E09131
:103470002D02F0912E02309721F00280F381E02D91
:1034800009940895E0912D02F0912E02309739F0C1
:1034900022E0DC012C930480F581E02D099408954D
:1034A00020912B0230912C022817390771F090934C
:1034B0002C0280932B02E0912D02F0912E02309786
:1034C00021F00680F781E02D0994089520912902CA
:1034D00030912A022817390771F090932A028093BD
:1034E0002902E0912D02F0912E02309721F0008404
:1034F000F185E02D099408959C012E5F3F4FAC01AA
:10350000485F5F4F80E02417350709F40895F901FB
:1035100091919F019923B9F38F5FF5CF662349F00D
:10352000FC01329608962191261729F0E817F90731
:10353000D1F780E0089581E008959C01FC01329666
:103540009FEF80E04191461751F09F3F19F44111E0
:1035500001C0982F8F5F8630A9F79F3F09F4089527
:10356000290F311D97FD3A95F90162830895FC01F9
:10357000329608962191261303C0DF0111971C9201
:10358000E817F907B9F708950C949D1A0C94B71A27
:10359000029626E0FC0111922A95E9F70895089514
:1035A0000C94CF1A811105C081E080932F020C94F6
:1035B000D01A82E0FACF83E080932F020C94D01AC5
:1035C0000C94D21A81E080932F020C94D01A0C94A0
:1035D000E21A089580915C02843031F10E94440324
:1035E0001092300288E190E020E40FB6F894A8959C
:1035F000809360000FBE2093600083B7817F84605A
:1036000083BF83B7816083BF7894889583B78E7FAB
:1036100083BF0FB6F894A89580916000886180936D
:103620006000109260000FBE089508950895CF9332
:103630000E94151B0E940F120E94161BC0E08C2FC7
:103640000E945411811105C0CF5FCA30C1F7CF91DC
:10365000089581E0FCCF0E94EC070C94B2031F9206
:103660001FB61F9211248F939F93AF93BF938091A6
:103670003002811113C08091540290915502A091A3
:103680005602B09157024196A11DB11D809354027C
:1036900090935502A0935602B0935702BF91AF91F9
:1036A0009F918F911F901FBE1F90189582E084BD3F
:1036B00093E095BD9AEF97BD80936E0008952FB764
:1036C000F8948091540290915502A0915602B091C5
:1036D00057022FBF08952FB7F8946091540270914C
:1036E000550280915602909157022FBF08959C0178
:1036F0004FB7F8948091540290915502A0915602D0
:10370000B09157024FBF821B930B089578941F927C
:103710001FB61F9211248F939F93AF93BF938091F5
:10372000540290915502A0915602B0915702019611
:10373000A11DB11D8093540290935502A09356028F
:10374000B0935702BF91AF919F918F911F901FBE71
:103750001F90189581E08093E00080E28093D8006C
:103760001092C9008FE19EE40197F1F700C00000BC
:1037700087E090EBDC018093650290936602A09352
:103780006702B093680288E19CE00FB6F894A895B0
:10379000809360000FBE90936000FFCF80913C0249
:1037A000089508959C0184E08093E9009FEF809143
:1037B000E800915085FD06C085ED8A95F1F700007F
:1037C0009111F5CF8091E80085FF0CC050E040E0FA
:1037D00066E070E0C9010E94631E8091E8008E7768
:1037E0008093E8000895CF93DF93EC0181E080930C
:1037F000E9008FEF9091E800815095FD06C095EDAE
:103800009A95F1F700008111F5CF8091E80085FFCE
:1038100014C050E040E068E070E0CE010E94631EFA
:103820008091E8008E778093E80088E0FE01A4E3B1
:10383000B2E001900D928A95E1F7DF91CF91089562
:1038400080933102709333026093320280915C0264
:103850008430F9F48093E9008FEF9091E800815073
:1038600095FD06C095ED9A95F1F700008111F5CF11
:103870008091E80085FF0DC050E040E063E070E01B
:1038800081E392E00E94631E8091E8008E7780932E
:10389000E8000895BC0184E00C94201CBC0183E086
:1038A0000C94201CCF93FC01603221F580915C02C6
:1038B000843001F5C091E900CF702091EC00922F87
:1038C000917020FD90E8C92B82E08093E9008091FF
:1038D000E80080FF0CC050E040E060E270E0CF0103
:1038E0000E94631E8091E8008E778093E800CF707D
:1038F000C093E900CF91089580915B02811109C0C6
:103900000E9442200E949F208091E2008460809368
:10391000E200089510925B0208950C94E21A6091FF
:10392000580281E0611101C080E00C94DB1A909193
:103930005C0281E0943009F080E0609158020C94C0
:10394000E01A42E061EC81E00E94BE1F42E261ECBD
:1039500084E00E94BE1F42E261EC82E00E94BE1F32
:1039600042E260EC83E00E94BE1F90915C0281E025
:10397000943009F080E0609158020C94D21A809142
:103980005E02833009F462C030F48130D9F18230B4
:1039900009F49EC008958A3009F48AC08B3009F476
:1039A00070C0893009F051C080915D02813209F008
:1039B0004CC08091610290916202009719F00297C9
:1039C00009F043C08091E800877F8093E8008091F0
:1039D000E80082FF36C09091F3008091F2000297D8
:1039E00031F48091F100813011F0863021F4809122
:1039F000F10080933C028091E8008B778093E8008F
:103A00000C94F21F80915D02813AF9F48091E800F4
:103A1000877F8093E8008091610290916202892BF8
:103A200061F468E084E392E070E00E94011F8091FD
:103A3000E8008B778093E800089560E090E080E0F4
:103A4000F3CF80915C028111C2CF089580915D0215
:103A5000813AD9F78091610290916202892BA9F78E
:103A60008091E800877F8093E8008091E80080FFE4
:103A7000FCCF809118018093F1008091E8008E774F
:103A8000BDCF80915D02813201F7809161029091FA
:103A90006202892BD1F68091E800877F8093E8004D
:103AA0000E94F21F80915F02809318010C94EC0732
:103AB00080915D02813249F68091E800877F809392
:103AC000E8000E94F21F8091600280933D020895F9
:103AD00080915D02813A09F0B8CF8091E800877F3C
:103AE0008093E8008091E80080FFFCCF80913D0248
:103AF000C2CF84B7877F84BF0FB6F894A895809112
:103B00006000886180936000109260000FBE80E8C2
:103B100090E00FB6F89480936100909361000FBE1F
:103B20000C94E71A0E9442200E949F20E2EEF0E0EF
:103B300080818460808378940C9428238CE091E0C9
:103B40000C94261A80915C028530A9F480915C0265
:103B5000853011F00C942B1B0E94EA1A80915A02B6
:103B60008823A1F30E94171B882381F30E944D1E16
:103B70000E94EC07EBCF0895CF93DF93CDB7DEB76C
:103B8000A0970FB6F894DEBF0FBECDBF80915C0248
:103B9000843009F583E08093E9008091E80082FF9A
:103BA0001AC08091E80090E085FF09C050E040E035
:103BB00060E270E0CE0101960E94B21E91E0809119
:103BC000E8008B778093E800992329F060E2CE012A
:103BD00001960E94C815A0960FB6F894DEBF0FBEDE
:103BE000CDBFDF91CF9108950C94F61D292F332777
:103BF0002330310521F168F42130310509F443C047
:103C00002230310509F444C090E080E030E020E04B
:103C100026C02132310551F122323105A9F7633036
:103C2000710590F7FB01EE0FFF1FE157FE4F20815A
:103C3000318164577E4FFB01808190E010C099274D
:103C40008130910581F0009729F00297E9F6ECE8C0
:103C5000F3E002C0E8EAF3E0849190E09F01FA010A
:103C6000318320830895EAE9F3E0F6CF63307105EC
:103C700058F6660F771FFB01EB56FE4F208131810E
:103C800089E090E0ECCF82E190E027E034E0E7CFFC
:103C90008BE590E02CEA33E0E2CF80E189BD82E160
:103CA00089BD09B400FEFDCF8091D8008F7D80933F
:103CB000D8008091E00082608093E0008091E00075
:103CC00081FDFCCF0895AF92BF92CF92DF92FF9219
:103CD0000F931F93CF93DF936C01EB018A010E9436
:103CE0001120F82E811123C00115110539F0F801BA
:103CF00080819181C81BD90BC80ED91EB12CA12C73
:103D00002097A9F08091E80085FD22C08091E8000D
:103D10008E778093E80001151105A1F0F8018081EC
:103D20009181A80EB91EB182A08285E0F82E8F2D58
:103D3000DF91CF911F910F91FF90DF90CF90BF90B7
:103D4000AF9008950E9411208823D1F2F82EEFCF72
:103D5000F60181916F018093F1002197FFEFAF1A77
:103D6000BF0ACECFAF92BF92CF92DF92FF920F9356
:103D70001F93CF93DF936C01EB018A010E94112006
:103D8000F82E811123C00115110539F0F801808149
:103D90009181C81BD90BC80ED91EB12CA12C20971C
:103DA000A9F08091E80085FD22C08091E8008B7722
:103DB0008093E80001151105A1F0F801808191813F
:103DC000A80EB91EB182A08285E0F82E8F2DDF915A
:103DD000CF911F910F91FF90DF90CF90BF90AF9048
:103DE00008950E9411208823D1F2F82EEFCF809100
:103DF000F100F60181936F012197FFEFAF1ABF0A1F
:103E0000CECFFC01809163029091640286179707E0
:103E1000A0F06115710529F49091E8009E779093C8
:103E2000E80090E06115710551F4911108C080918E
:103E3000E80082FF34C080E00895BC01F2CF809199
:103E40005C028823C1F18530C1F18091E80083FDD7
:103E500030C08091E80082FDEACF8091E80080FFC9
:103E6000E1CF8091F3002091F200382F61157105A8
:103E700019F02830310558F091E02830310509F06B
:103E800090E02091E8002E772093E800CBCF81913D
:103E90008093F100615071092F5F3F4FE7CF809110
:103EA0005C02882341F0853041F08091E80083FF77
:103EB000BECF81E0089582E0089583E00895FC017B
:103EC000809163029091640286179707A0F06115B4
:103ED000710529F48091E8008E778093E80090E0E6
:103EE0006115710551F4911108C08091E80082FFBD
:103EF00035C080E00895BC01F2CF80915C02882338
:103F0000C9F18530C9F18091E80083FD31C080910D
:103F1000E80082FDEACF8091E80080FFE1CF809148
:103F2000F3002091F200382F6115710519F0283047
:103F3000310558F091E02830310509F090E080918A
:103F4000E8008E778093E800CBCF84918093F100D6
:103F50003196615071092F5F3F4FE6CF80915C022F
:103F6000882341F0853041F08091E80083FFBDCF88
:103F700081E0089582E0089583E00895982F9730B6
:103F800028F08F708093E90081E008959093E90014
:103F9000242F762F50E0981731F07091EC0020918B
:103FA000ED005091F00021FD02C09F5FE8CF3091FD
:103FB000EB003E7F3093EB003091ED003D7F30937E
:103FC000ED003091EB0031603093EB007093EC002A
:103FD0002093ED005093F0002091EE0027FDE5CFF7
:103FE00080E0089580915D0287FF13C08091E80012
:103FF00082FF06C08091E8008B778093E80004C0C0
:1040000080915C028111F2CF089580915C02882337
:10401000D9F38091E80080FFF8CF8091E8008E7797
:10402000ECCF2091E4003091E50095E6A9012091C4
:10403000EC00822F817020FF06C08091E80080FF95
:1040400006C080E008952091E80022FD1AC080910A
:104050005C02882389F0853089F08091EB0085FD32
:104060000FC02091E4003091E50042175307F9F2A8
:104070009150E1F684E0089582E0089583E0089588
:1040800081E008950E94B0200E94B820E0EEF0E0A8
:10409000808181608083E8EDF0E080818F7780838C
:1040A00019BCA7EDB0E08C918E7F8C9380818F7EC0
:1040B000808310925B0208950F931F93CF93DF9339
:1040C0000E94B0200E94B820C8EDD0E088818F7790
:1040D000888388818068888388818F7D888319BCE4
:1040E00010925C021092580210925A0210925902D9
:1040F00000EE10E0F80180818B7F808388818160F1
:10410000888342E060E080E00E94BE1FE1EEF0E0C4
:1041100080818E7F8083E2EEF0E080818160808309
:10412000808188608083F80180818E7F8083888190
:1041300080618883DF91CF911F910F910895E8ED01
:10414000F0E080818F7E8083E7EDF0E08081816008
:10415000808384E082BF81E080935B020C945C20CA
:10416000E8EDF0E080818E7F80831092E200089578
:104170001092DA001092E10008951F920F920FB68C
:104180000F9211242F933F934F935F936F937F93DD
:104190008F939F93AF93BF93EF93FF938091E10031
:1041A00082FF0BC08091E20082FF07C08091E10096
:1041B0008B7F8093E1000E9427238091DA0080FFAB
:1041C00019C08091D80080FF15C08091DA008E7FE1
:1041D0008093DA008091D90080FF96C080E189BD8C
:1041E00082E189BD09B400FEFDCF81E080935C02CD
:1041F0000E947C1C8091E10080FF19C08091E20048
:1042000080FF15C08091E2008E7F8093E200809154
:10421000E20080618093E2008091D8008062809308
:10422000D80019BC85E080935C020E948F1C8091AD
:10423000E10084FF2BC08091E20084FF27C080E171
:1042400089BD82E189BD89B5982F917080FFFBCF30
:104250008091D8008F7D8093D8008091E1008F7E7F
:104260008093E1008091E2008F7E8093E200809154
:10427000E20081608093E20080915802882309F473
:1042800049C084E080935C020E94971C8091E10009
:1042900083FF29C08091E20083FF25C08091E10067
:1042A000877F8093E10082E080935C021092580245
:1042B0008091E1008E7F8093E1008091E2008E7F0B
:1042C0008093E2008091E20080618093E20042E00E
:1042D00060E080E00E94BE1F8091F00088608093C3
:1042E000F0000E948D1CFF91EF91BF91AF919F91C3
:1042F0008F917F916F915F914F913F912F910F908F
:104300000FBE0F901F90189519BC10925C020E946E
:104310008A1C70CF8091E30087FD93E090935C024C
:10432000B3CF1F920F920FB60F9211242F933F938A
:104330004F935F936F937F938F939F93AF93BF93AD
:10434000CF93DF93EF93FF93D091E900DF708091DB
:10435000EC00C82FC17080FDC0E81092E900809188
:10436000F000877F8093F00078940E94D52110920E
:10437000E9008091F00088608093F000CD2BCF7031
:10438000C093E900FF91EF91DF91CF91BF91AF9181
:104390009F918F917F916F915F914F913F912F915D
:1043A0000F900FBE0F901F9018951F93CF93DF9320
:1043B000CDB7DEB7AA970FB6F894DEBF0FBECDBF5C
:1043C0008DE592E02091F100FC012193CF01F2E014
:1043D00085369F07B9F70E94BF1C8091E80083FFD4
:1043E0001EC180915D0290915E029A3008F017C163
:1043F000E92FF0E0E650FC4D0C945723803899F0FB
:10440000823809F00CC1809161028F70873008F00A
:1044100006C18093E9008091EB0085FB882780F935
:104420001092E90006C08091590290915A029111B0
:1044300082609091E800977F9093E8008093F1006C
:104440001092F1008091E8008E77E5C0882309F48E
:10445000D3C0823009F0E3C080915F028111D6C0E1
:10446000809161028F702FEF280F263008F0D7C09F
:104470008093E9002091EB0020FFC8C0933031F415
:104480008091EB0080628093EB00C0C09091EB00C4
:1044900090619093EB0021E030E001C0220F8A95FB
:1044A000EAF72093EA001092EA008091EB0088601E
:1044B000EACF8111B4C010915F021F778091E300B1
:1044C0008078812B8093E3008091E800877F809340
:1044D000E8000E94F21F8091E80080FFFCCF8091ED
:1044E000E30080688093E30082E0111183E0809311
:1044F0005C0295C08058823008F091C080915F02C4
:10450000909160028C3D23E09207A1F583E08A83BD
:104510008AE289834FB7F894DE01139620E03EE0EB
:1045200051E2E32FF0E050935700E49120FF03C0E5
:10453000E295EF703F5FEF708E2F90E0EA30C0F0B1
:10454000C7968D939D932F5F243159F74FBF80916C
:10455000E800877F8093E8006AE270E0CE01019670
:104560000E94011F8091E8008B778093E80057C07C
:10457000C096E7CF6091610270916202AE014F5F19
:104580005F4F0E94F41DBC01892B09F448C0909133
:10459000E800977F9093E80089819A810E945F1FCD
:1045A000E1CF8038E1F58091E800877F8093E800D3
:1045B000809158028093F10045CF811130C09091D5
:1045C0005F02923060F58091E800877F8093E80079
:1045D000909358020E94F21F80915802882311F094
:1045E00084E005C08091E30087FDFACF81E08093ED
:1045F0005C020E94A11C13C080915F02813079F49B
:1046000081E0933009F080E080935A021092E90033
:104610008091E800877F8093E8000E94F21F8091DC
:10462000E80083FF0AC08091E800877F8093E8005C
:104630008091EB0080628093EB00AA960FB6F8940D
:10464000DEBF0FBECDBFDF91CF911F9108950895BA
:10465000CF9380915C028823A1F0C091E900CF70D4
:104660009091EC00892F817090FD80E8C82B10920A
:10467000E9008091E80083FD0E94D521CF70C093AE
:10468000E900CF91089597FB072E16F4009407D008
:1046900077FD09D00E94642307FC05D03EF4909575
:1046A00081959F4F0895709561957F4F0895EE0F06
:1046B000FF1F0590F491E02D09946927962769273B
:1046C0007827872778270895AA1BBB1B51E107C0CD
:1046D000AA1FBB1FA617B70710F0A61BB70B881F92
:1046E000991F5A95A9F780959095BC01CD01089521
:1046F000FB01DC0104C08D910190801921F441502F
:104700005040C8F7881B990B0895F999FECF92BDC8
:1047100081BDF89A992780B50895A8E1B0E042E0FC
:1047200050E00C94B923262FF999FECF92BD81BD9C
:10473000F89A019700B4021639F01FBA20BD0FB6DF
:10474000F894FA9AF99A0FBE08950396272F0E94BB
:1047500094230E949323252F0E949423242F0C94AA
:1047600094230196272F0E9494230C949323DC0119
:10477000CB01FC01F999FECF06C0F2BDE1BDF89A6C
:10478000319600B40D9241505040B8F70895F89416
:10479000FFCFC005C005F105F1058406A00620067F
:1047A0002006AB06120721072107790720062006FD
:1047B0008207FB07FB07040804080608040804082E
:1047C0000408FB07FB070B08040804080B08DA15AC
:1047D000E7150E161A16251630163316331633162D
:1047E0003316331636163A1642164F165C165F16F7
:1047F00062166F16FE2126220F2326220F2359222E
:084800007A220F23D122DD22F0
:10480800C800F6012808641E140A321ECE1BF31BCA
:10481800D21B4E1C4A1CD11B01E200E900EA00B57C
:1048280000B600B700CD008301CC008A0192019444
:10483800012102230224022502260227022A02B3AA
:1048480000B4006F007000818283E200E900EA0092
:10485800B500B600B700CD008301CC008A019201F3
:1048680094012102230224022502260227022A0299
:10487800B300B4006F00700081828391929390948A
:104888006697F5C63435F4323331F7F640227BB6F5
:0C4898000419043B04BE03D703F703001F
:00000001FF
