:100000000C9465010C94AC010C94AC010C94AC0103
:100010000C94AC010C94AC010C94AC010C94AC01AC
:100020000C94AC010C94AC010C94C11C0C94941D68
:100030000C94EA170C94AC010C94AC010C94AC0138
:100040000C94AC010C94AC010C94AC010C94AC017C
:100050000C94AC010C9455180C94AC010C94AC01AC
:100060000C94AC010C94AC010C94AC010C94AC015C
:100070000C94AC010C94AC010C94AC010C94AC014C
:100080000C94AC010C94AC010C94AC010C94AC013C
:100090000C94AC010C94AC010C94AC010C94AC012C
:1000A0000C94AC010C94AC010C94AC0168747470A9
:1000B000733A2F2F716D6B2E666D2F0A00514D4BC9
:1000C00020697320746865206265737420746869A0
:1000D0006E672065766572210004001E0001512BB9
:1000E0000000002C005F5D605D0100005C0000000E
:1000F0000000000000000000002A2B280000000083
:1001000000000000000000000000000029000000C6
:10011000002C1E3420212224342627252E362D376C
:1001200038271E1F202122232425263333362E373D
:10013000381F0405060708090A0B0C0D0E0F1011D5
:1001400012131415161718191A1B1C1D2F313023E2
:100150002D350405060708090A0B0C0D0E0F1011AA
:1001600012131415161718191A1B1C1D2F313035B0
:100170004C00000000000000000000000000000033
:10018000000000000000000000000000000000006F
:1001900000000000007E0F00D4FFFFFFC70000003A
:1001A000780C03570054004C003600320000000C5D
:1001B0000373006100740031006C00000004030947
:1001C0000409023B00020100A0FA09040000010337
:1001D00001010009211101000122400007058103EE
:1001E00008000A09040100010300000009211101AF
:1001F0000001227B000705820320000A1201100182
:1002000000000008EDFE00000100010200010501F0
:100210000902A10185020901A100050919012908A6
:100220001500250195087501810205010930093184
:100230001581257F95027508810609381581257F6E
:10024000950175088106050C0A38021581257F95F0
:100250000175088106C0C005010980A10185031947
:10026000012AB700150126B700950175108100C05D
:10027000050C0901A101850419012AA00215012616
:10028000A002950175108100C005010906A10105B4
:100290000719E029E71500250195087501810295E8
:1002A00001750881010507190029FF150026FF00C7
:1002B0009506750881000508190129059505750140
:1002C0009102950175039101C00011241FBECFEF6B
:1002D000DAE0DEBFCDBF04B603FE27C08091130273
:1002E00090911402A0911502B09116028730904BA4
:1002F000A740B04BD1F41092130210921402109246
:1003000015021092160214BE84B7877F84BF0FB601
:10031000F894A895809160008861809360001092A5
:1003200060000FBEE0E0F8E3099511E0A0E0B1E065
:10033000E4EDFFE302C005900D92A637B107D9F7AF
:1003400022E0A6E7B1E001C01D92A331B207E1F7B8
:100350000E94031A0C94B61F0C9400009C01FB0130
:100360002F358DE5380729F020363D4551F081E0E5
:10037000089582818823D9F38DEB90E00E944F038A
:10038000F6CF8281882399F38CEA90E0F7CF81E061
:1003900008950C94AE0108950C94CB011F93CF9354
:1003A000DF9300D000D00F92CDB7DEB749835A83D8
:1003B0006B8330919D0189819A8131111DC0662323
:1003C000B9F02223A9F00E941A15182F682F8981ED
:1003D0009A810E94C31469817A81812F0F900F90B6
:1003E0000F900F900F90DF91CF911F910C946103AC
:1003F0000E94F114182FEFCF0E941A1569817A819B
:10040000EDCFFC01262F408151816281738184816F
:100410000C94CE01CF93DF93D82FC92F60E00E94B8
:1004200001026D2F7C2FDF91CF910C94CC010E94A3
:100430005B050C9494050C94970508950E94EC0FAD
:100440000E941D022FEF84E39CE0215080409040E9
:10045000E1F700C000000C9479180F931F93CF931D
:10046000DF938C0161E00E940102EC01B8010E945F
:10047000C9018823A9F1B801CE010E948609882309
:1004800079F1B801CE010E94DB09882349F1B80156
:10049000CE010E94AE0A882319F1F80182818823D7
:1004A00061F0CB35FDE5DF0721F170F4C115ECE516
:1004B000DE07A1F0CF3DDC45C9F0C801DF91CF9147
:1004C0001F910F910C94C701CC358DE5D807A1F091
:1004D000CD35DD4591F70E94C915EFCF0E941E0270
:1004E00080E0DF91CF911F910F9108950E943717FF
:1004F000F7CF0E94D215E1CF0E94D515DECFDF9253
:10050000EF92FF920F931F93CF93DF93E82FF0E0CA
:10051000EF50FF4FD490282F26952695269530E052
:10052000F901EF56FE4F0491877010E0082E02C0CB
:10053000159507950A94E2F701701127F901EF5715
:10054000FE4FE490F12C082E02C0F594E7940A9433
:10055000E2F791E0E922FF24F901EF58FE4FC49140
:10056000D0E002C0D595C7958A95E2F7C170DD2726
:100570000115110519F081EE0E943D0CE114F10402
:1005800019F086EE0E943D0C8D2D0E943B0DEF2848
:1005900019F086EE0E94CE0C012B19F081EE0E941C
:1005A000CE0CCD2B51F08CE2DF91CF911F910F91AA
:1005B000FF90EF90DF900C943B0DDF91CF911F9156
:1005C0000F91FF90EF90DF900895EF92FF920F93BD
:1005D0001F93CF93DF938C01F62E8AE0E82EF8016B
:1005E0008491882309F454C0813009F04DC0E8019A
:1005F0002196FE018491813091F42196FE0184912F
:100600000E943B0D8E010F5F1F4F8F2D815038F3DD
:10061000EFE9FFE03197F1F700C00000F7CF82303B
:1006200039F4E8012296FE0184910E943D0CEACF44
:10063000833039F4E8012296FE0184910E94CE0CA9
:10064000E1CF8430F9F6E8012296FE01249190E092
:1006500080E0FE0131962053330B2A30310548F0FB
:10066000019780F2EFE9FFE03197F1F700C0000059
:10067000F7CFE89EA001E99E500D1124C901840F17
:10068000951F2491EF01E5CF0E947F02E801BACFC8
:10069000DF91CF911F910F91FF90EF90089560E04F
:1006A0000C94E50208950C94520381E008950C9493
:1006B0005503CF93C82F0E9453038C2FCF910C94D6
:1006C0005703972F70E023E0929F600D711D112456
:1006D000FB0196E0899FE00DF11D1124EE0FFF1F35
:1006E000E752FF4F859194910895CF93DF930E9435
:1006F00061030E946804EC01811522E5920708F06D
:1007000062C0811531E5930708F0B5C0883E9105B8
:1007100018F5803E9105B8F5883A910570F4853A50
:10072000910508F0A2C08130910569F10497813AE2
:10073000910548F1D0E0C0E026C0885A910947975A
:10074000C8F7C85AD0E0CC0FDD1FCB5EDE4F099052
:10075000D881C02DD46417C0811540E59407B8F442
:10076000C11580E4D80708F083C0CF3FD10509F058
:1007700028F4CD3ED105F0F2D06505C0CE019A95A2
:1007800081159F41B8F6CE01DF91CF910895F4E035
:1007900096958795FA95E1F783702C2F26952695E7
:1007A000237040E2249F90011124382B8C2F8370FA
:1007B000C1E0D0E002C0CC0FDD1F8A95E2F7C22B6A
:1007C000D32BDC68E0CFC11586E5D80730F5C1151D
:1007D00095E5D90708F063C0C11524E5D207C0F438
:1007E0009C2F969596959E0123703327C115D3456E
:1007F00008F046C0C1E0D0E002C0CC0FDD1F2A9552
:10080000E2F720E2929FC0011124C82BD92BD9CF47
:10081000DC2FCC27C46FD06AB6CFC1153AE5D30719
:1008200088F4C11549E5D40708F044C0CE019855B5
:100830008F3F910511F008F07DCFDC2FCC27C06FE2
:10084000D06AA1CFCE0190568115904208F072CFA8
:100850008D2F8F710E94000590E0982F88278827A0
:100860009F719C012C2BE90123C0A497D0648BCFEE
:10087000DF70D06A88CFD82FCC27C16FD06A83CFE2
:10088000C1E0D0E002C0CC0FDD1F2A95E2F730E2D4
:10089000939FC0011124C82BD92BDA6874CF8C2FF9
:1008A0000E940005C82FD0E0DC2FCC27CC27DF71B9
:1008B000D06269CF8C2F8F700E94000534E0D695EE
:1008C000C7953A95E1F7CF70DC2FC82FD0695BCF81
:1008D000803E910599F1C8F48133910509F476C001
:1008E00048F48932910509F46AC08A32910509F405
:1008F00074C0089589339105D1F082389105B9F01B
:100900008533910509F454C00895843E910599F109
:1009100038F4823E9105F9F0833E910509F108957E
:10092000863E910599F1873E9105B9F10895209190
:10093000FC012370A1F080EE90E008952091FC016D
:1009400020FD52C03091FD0130FF09C024FF4FC08F
:1009500090E080E004C02091FC0122FDF7CF0895D3
:100960002091FC0122FD46C03091FD0130FDE3CF16
:1009700024FFF5CFEDCF2091FD0121FFF0CF809135
:10098000FC0184FDE5CF87EE90E008952091FC0105
:1009900023FFE5CF24FDDCCFF6CF2091FC0123FD22
:1009A0002CC03091FD0131FFE3CF84EE90E008953B
:1009B0002091FC0125FFD3CF89E290E0089520919A
:1009C000FC0125FFCCCF85E390E008952091FC0148
:1009D00026FFC5CF8AE290E008952091FC0126FF12
:1009E000BECF81E390E0089589E390E0089583EE1F
:1009F00090E0089582EE90E0089586EE90E00895EC
:100A00009091FC0192FF06C0282F28712830F9F43C
:100A1000877F846093FF06C0282F28712831F1F466
:100A2000877E84612091FD0120FF06C0382F387138
:100A30003830D9F4877F816021FF06C0282F2871C4
:100A40002831D1F4877E816194FD877E0895282F17
:100A500024712430F9F68B7F8860DCCF282F247135
:100A6000243101F78B7E8861DDCF382F3171313031
:100A700019F78E7F8860E0CF282F2171213121F76F
:100A80008E7E8861E1CF0C948C160E94DE058FE388
:100A90009CE90197F1F700C000000E94DE0580E0AC
:100AA0000E94990580FF04C00E9443050C947918A8
:100AB00008950C944505CF93DF9300D000D0CDB7B7
:100AC000DEB70E949216811102C00E9437170E9461
:100AD0009D168093F0010E94A5169093FD018093CE
:100AE000FC010E9459050E94A116282F30E050E019
:100AF00040E0CA01B9010E94FF128091DB01909190
:100B0000DC01A091DD01B091DE0189839A83AB8382
:100B1000BC83BC01CD010F900F900F900F90DF911F
:100B2000CF910C947B1308950C94930508950C9425
:100B30009605E82FF0E0E050FE4F8081089508957B
:100B400080EA8A95F1F7089500C008950C94A005F5
:100B5000F894E82FE295EF70F0E041A18F7021E06A
:100B600030E0B90102C0660F771F8A95E2F7CB012A
:100B7000962F9095942391A392A1892B82A3789488
:100B8000089580E90E94A80585E90E94A80581EFE3
:100B90000E94A80580EF0E94A80580E30E94A80596
:100BA000AEEFB1E01C92E0E0F2E0108211961C92F0
:100BB000118282E00E9455060C941702CF92DF92B8
:100BC000EF92FF920F931F93CF93DF93C6E4D1E090
:100BD0000EEF11E0D12CEE24E394F12C8991F894DE
:100BE000E82FE295EF70F0E021A18F70A70102C01D
:100BF000440F551F8A95E2F7CA01922F982B91A3B3
:100C000092A18095892382A378940E94A405E3E4AD
:100C1000F1E030E020E0C12C4191A42FA295AF700B
:100C2000B0E090968C9190E04F7002C095958795BA
:100C30004A95E2F780FD35C08E2D022E01C0880F47
:100C40000A94EAF7C82A2F5F3F4F2330310521F776
:100C5000FE01319780810E94A8050E94A605F80137
:100C60008081C81601F1C08281E0D82A0F5F1F4F32
:100C7000F1E0C834DF0709F0B1CF2D2D42E060E08C
:100C800072E08EEF91E00E9456060E941B028D2DAD
:100C9000DF91CF911F910F91FF90EF90DF90CF9058
:100CA000089580E0CFCF80E0E0CF0895FF920F93CA
:100CB0001F93CF93DF93F82E092F162FD72FC42F12
:100CC000222349F081E080937A010E941A189093C0
:100CD00079018093780180917A018823A1F0809135
:100CE0007801909179010E944618069760F0EF2DE7
:100CF000F02FA12FBD2FCE0FDF2FD11DEC17FD0739
:100D000041F410927A01DF91CF911F910F91FF90E2
:100D1000089581918D93F2CF8091810180FF12C05F
:100D20006091050185E0689FB00111247595679574
:100D30007595679560387105A8F561157105A1F184
:100D4000862F089581FF09C06091050185E0689FA5
:100D5000B001112475956795EDCF6091050182FD75
:100D60000AC0809180018823D1F0909104016091A4
:100D70000501891728F085E0689FB0011124DACFBA
:100D8000869FB001112485E0869F9001879F300DDA
:100D90001124692F70E0C9010E94461FCBCF65E086
:100DA00070E0CECF8FE7089581E0089580918101B2
:100DB00080FF0CC06091010170E075956795759595
:100DC00067956115710549F1862F089581FF06C069
:100DD0006091010170E075956795F3CF6091010115
:100DE00082FD0BC090917F019923A1F060910001D9
:100DF00080910101961738F0682F70E06038710516
:100E000000F38FE70895899FC001112470E00E94CC
:100E1000461FF4CF61E070E0D7CF81E008958D3EAA
:100E200031F40E948C0681958093850108958E3E51
:100E300019F40E948C06F8CF8F3E31F40E948C0684
:100E40008195809384010895803F19F40E948C0657
:100E5000F8CF893F29F40E94D60680938601089531
:100E60008A3F21F40E94D6068195F7CF8B3F31F45B
:100E70000E94D60681958093870108958C3F19F4CE
:100E80000E94D606F8CF9FE0980F983070F4815FEB
:100E9000990B21E030E001C0220F8A95EAF780919A
:100EA0008301822B8093830108958D3F31F48091DB
:100EB000810181608093810108958E3F21F48091AA
:100EC00081018260F7CF8F3FB9F780918101846003
:100ED000F1CF409184018D3E59F48091850187FFC7
:100EE0000DC01092850141110BC01092800108C005
:100EF0008E3E81F48091850118169CF3442381F085
:100F00008091860190918701892B09F05AC0109237
:100F10007F0108958F3E49F447FFF0CF109284017E
:100F2000809185018111ECCFE0CF803F19F4141638
:100F3000ACF3E4CF90918601893F29F41916F4F6B9
:100F400010928601DBCF8A3F19F497FFD7CFF8CFF5
:100F5000909187018B3F29F497FFD0CF10928701A2
:100F6000CDCF8C3F19F41916CCF3C8CF9FE0980F62
:100F7000983090F4815F990B21E030E0B90102C014
:100F8000660F771F8A95E2F7CB01809590918301D8
:100F9000892380938301B2CF8D3F31F48091810109
:100FA0008E7F80938101AACF8E3F21F480918101B1
:100FB0008D7FF7CF8F3F09F0A1CF809181018B7F8B
:100FC000F0CF08950E941A18209184013091850174
:100FD000232B21F080937D0190937E012091860147
:100FE00030918701232B21F080937B0190937C012A
:100FF00082E891E00C94F40AEF92FF920F931F9312
:10100000CF93DF9300D000D000D0CDB7DEB786E01D
:10101000E2E8F1E0DE01119601900D928A95E1F788
:10102000E0908401F0908501009186011091870184
:10103000109284011092850110928601109287010E
:101040008F2D8E2991F080917D0190917E010E94DB
:1010500046189C0180918001882309F443C0909137
:1010600006019217130608F44BC0802F812B91F0D4
:1010700080917B0190917C010E9446189C01809197
:101080007F01882309F47BC0909102019217130617
:1010900008F483C08091840190918501892B9091FF
:1010A0008601892B90918701892B11F00E94E2071C
:1010B000EB82FC820D831E8386E0FE013196A2E85E
:1010C000B1E001900D928A95E1F726960FB6F8945B
:1010D000DEBF0FBECDBFDF91CF911F910F91FF906B
:1010E000EF900895409107019AE0499FA0011124D3
:1010F0004217530708F0B9CF8F5F8093800102C079
:101100008F3FD1F7EE2059F00E948C069FEF1E14FE
:101110000CF491E0899F802D112480938401FF209D
:1011200059F00E948C069FEF1F140CF491E0899FE8
:10113000802D11248093850130918401332309F49B
:1011400094CF20918501222309F48FCF45EB3403FE
:10115000C0011124992359F09093840145EB240395
:1011600090011124332339F0309385017ECF81E043
:1011700080938401F3CF81E08093850176CF409105
:1011800003019AE0499FA00111244217530708F078
:1011900081CF8F5F80937F0102C08F3FD1F7002303
:1011A00059F00E94D6069FEF10160CF491E0899F2B
:1011B000802D112480938601112359F00E94D606B8
:1011C0009FEF11160CF491E0899F802D11248093DC
:1011D000870130918601332309F45CCF2091870188
:1011E000222309F457CF45EB3403C001112499237E
:1011F00059F09093860145EB240390011124332389
:1012000039F03093870146CF81E080938601F3CF98
:1012100081E0809387013ECF86E0E2E8F1E0DF01E4
:101220001D928A95E9F71092800110927F01109229
:10123000810108950F931F93CF93DF93C42FD22F73
:10124000FC0182818823C9F040938A010E941A1808
:10125000909389018093880180E28C0F883008F098
:1012600050C0C77081E001C0880FCA95EAF7DF91CE
:10127000CF911F910F910C94430D10918A0114137B
:1012800035C080918801909189010E944618883C60
:10129000910560F5C0E2CD0F1D17B9F080E2810F16
:1012A000883040F4177081E001C0880F1A95EAF782
:1012B0000E944A0DC83048F481E09D2F977001C00C
:1012C000880F9A95EAF70E94430D802F0E943B0DEC
:1012D000C830B8F4D77081E001C0880FDA95EAF71A
:1012E000DF91CF911F910F910C944A0D80E28C0FEA
:1012F000883038F4C77081E001C0880FCA95EAF7DA
:10130000EFCFDF91CF911F910F9108950F939C0123
:10131000CB01243F4CE53407A1F190F4293DFCE5D5
:101320003F0749F12A3D4CE53407E9F1283D3C45AA
:10133000C1F0FC0182818823E1F110928A0119C079
:10134000263FFCE53F0719F1273F4CE5340729F11B
:10135000253F3C4571F707E225EE44EE65EF7CE55D
:1013600005C006E221EE41EE68ED7CE50E941A0917
:1013700080E00F91089507E225EE45EE69ED7CE5EA
:10138000F5CF06E221EE40EE64EF7CE5EFCF06E21A
:1013900021EE42EE66EF7CE5E9CF07E225EE46EE70
:1013A00067EF7CE5E3CF08E221E045EE6AED7CE5FE
:1013B000DDCF81E0DECFCF93DF93EC01FB018281B3
:1013C000882309F4C9C0C631FCE5DF07E0F4C23068
:1013D0009CE5D907F0F00E94A5169093FD0180933B
:1013E000FC01C631ECE5DE0720F5C230FCE5DF0785
:1013F00098F48091FC019091FD010E94B3160E9427
:10140000EC0F80E006C09E012B5F3C452930310582
:1014100010F3DF91CF910895FE01E350FC458091D8
:10142000FC018160E331F10588F4E854F04E0C943E
:101430005A1FCB5FDC45C930D105D8F6C553D04E15
:10144000FE010C945A1F8091FC0182608093FC0184
:10145000D0CF8091FC018460F9CF8091FC0188603D
:10146000F5CF8091FD0181608093FD01C2CF809115
:10147000FD018260F9CF8091FC018061E7CF80910E
:10148000FC018062E3CF8091FC018064DFCF0E9489
:10149000EC0F8091FC018068D9CF8091FC018C60B9
:1014A000D5CF8091FD018360DFCF8091FC018E7FDD
:1014B000CDCF8091FC018D7FC9CF8091FC018B7FC6
:1014C000C5CF8091FC01877FC1CF8091FD018E7FC8
:1014D000CBCF8091FD018D7FC7CF8091FC018F7EA6
:1014E000B5CF8091FC018F7DB1CF8091FC018F7BC6
:1014F000ADCF0E94EC0F8091FC018F77A7CF809138
:10150000FC01837FA3CF8091FD018C7FADCF8091C3
:10151000FC0182FB992790F921E0922790FB82F948
:1015200090FB83F993CF8091FD01982F9095917056
:101530008E7F892B90FB81F997CF0E94EC0F9091C1
:10154000FC01892F97FB87F9805880CF81E00E94AA
:1015500039174FCF80E0FBCF81E05BCFCF93DF9394
:10156000EB0186319C4511F50E94D8159A8199238B
:1015700099F08A7A91E009F490E090938B018111BF
:1015800009C089E20E9492150E941D1680E0DF9139
:10159000CF91089585E3F6CF80918B01811104C02E
:1015A00089E20E949915F0CF85E3FBCF81E0EFCF70
:1015B00090939101809390010895E0919001F091B2
:1015C0009101309721F00190F081E02D099480E0A5
:1015D0000895E0919001F0919101309721F00280FF
:1015E000F381E02D09940895DC01E0919001F091E0
:1015F0009101309739F082E08C930480F581E02DE1
:10160000CD010994089520918E0130918F01281702
:10161000390771F090938F0180938E01E0919001D2
:10162000F0919101309721F00680F781E02D099427
:10163000089520918C0130918D012817390771F0A0
:1016400090938D0180938C01E0919001F091910134
:10165000309721F00084F185E02D099408950E94CF
:1016600026186093990170939A0180939B0190933F
:101670009C016093950170939601809397019093DC
:101680009801089585B7806885BF85B7806885BF54
:101690000895089508950C94490B08950C944D0BEA
:1016A0000E94420B8AE896E10E949D180E944A0B14
:1016B0000C944B0B81E008950C945A0B08950895F7
:1016C0000E945E0B0C945F0B0E9411180E94C105D2
:1016D0000C944E0BBF92CF92DF92EF92FF920F933A
:1016E0001F93CF93DF9300D000D00F92CDB7DEB71A
:1016F0000E94DE0581110E942F0B33E9C32E31E0D9
:10170000D32E10E000E0B02E802F0E949905F82E15
:10171000F601E1906F01E81609F457C08091F001DD
:1017200081FD0E949F058E2D8F25F82FF170EF2EE1
:1017300080FD44C081FD44C082FF47C092E0D92EA5
:1017400024E0E22E0E945C0B882399F0D982BA82B1
:10175000FE2081E009F480E08B830E941A188160EA
:10176000782F9D838C8349815A816B818D810E9462
:10177000080CF801ED56FE4F8081E826E0820E94B9
:10178000FC070E94DD0A90919201891791F10E9455
:10179000DD0A809392010F900F900F900F900F90A1
:1017A000DF91CF911F910F91FF90EF90DF90CF903D
:1017B000BF900C94590301E010E0A5CFD12CC2CF0B
:1017C000DD24D39482E0E82EBDCF0130110599F7D6
:1017D0008FEF89838A831B820E941A188160782F79
:1017E0009D838C8349815A816B818D810E94080C75
:1017F000C6CF0F900F900F900F900F90DF91CF9169
:101800001F910F91FF90EF90DF90CF90BF900895C0
:10181000DF92EF92FF920F931F93CF93DF93CDB799
:10182000DEB72B970FB6F894DEBF0FBECDBF7A8719
:101830008B87F42E052F162FE72ED82E61110E94CC
:10184000FA157E2DEC82DD824F2D502F612F8D2DCC
:1018500090E02B960FB6F894DEBF0FBECDBFDF91A0
:10186000CF911F910F91FF90EF90DF900C944F124A
:10187000FC01808191810C945C15CF93C82F882343
:1018800009F48AC08238C1F40E94DD0A81FD84C057
:1018900089E30E9492150E941D162FEF31EE84E01D
:1018A000215030408040E1F700C0000089E30E94F1
:1018B0009915CF910C941D168338A1F40E94DD0A6E
:1018C00080FD6AC083E50E9492150E941D169FEF5D
:1018D00021EE34E0915020403040E1F700C000009C
:1018E00083E5E5CF8438A1F40E94DD0A82FD54C06F
:1018F00087E40E9492150E941D168FEF91EE24E05E
:10190000815090402040E1F700C0000087E4CFCF35
:101910008CEF8C0F813A90F46C2F8091080190919C
:1019200009010E945017882329F08C2F0E949915D5
:101930000E941D168C2F0E949215BBCF80E28C0F47
:10194000883048F4C77081E001C0880FCA95EAF773
:101950000E94DB15AECF8BE58C0F833038F42C2F33
:101960002452330BC901CF910C94030BE8E5EC0F23
:10197000E73150F4F0E0EE0FFF1FE85BFE4F80818F
:101980009181CF910C94190BCD3E30F08C2F0E9499
:101990000F07CF910C94E207CF910895882309F4A3
:1019A00052C0823871F40E94DD0A81FF4CC089E385
:1019B0000E9492150E941D1689E30E9499150C94AD
:1019C0001D16833859F40E94DD0A80FF3CC083E570
:1019D0000E9492150E941D1683E5EFCF843859F4BA
:1019E0000E94DD0A82FF2FC087E40E9492150E94A8
:1019F0001D1687E4E2CF9CEF980F913AF0F290E247
:101A0000980F983050F4877091E001C0990F8A9533
:101A1000EAF7892F0E94E115D2CF9BE5980F93300A
:101A200020F490E080E00C94030B98E5980F973138
:101A300020F490E080E00C94190B8D3E20F00E9481
:101A400069070C94E20708951F93CF93DF93182F33
:101A5000EB010E943D0C209731F4812FDF91CF9153
:101A60001F910C94CE0C8FE99FE00197F1F700C015
:101A700000002197F0CF70E060E0893311F460E559
:101A800070E00C94240D882321F00E94DB150C9447
:101A90001D160895882321F00E94E1150C941D164F
:101AA0000895AF92BF92CF92DF92EF92FF920F9381
:101AB0001F93CF93DF9300D000D00F92CDB7DEB746
:101AC0006C016D837983FC011281058102950F7091
:101AD0000E94B015E82E8823A1F0E12E112389F091
:101AE0008981807F803429F08D81805EE12C88306F
:101AF00040F082E00E946E160E94B01591E0E82E40
:101B0000E926898182958F70A82EB12C8C30A8F59A
:101B1000F501EC52F04E0C945A1F09810F70F981B7
:101B2000F07F11F00295007F1123B1F0002361F0E6
:101B30008D81805E883018F01D81111109C0802FC1
:101B40000E94DB150E941D168D810E943D0C15C060
:101B5000802F0E94EC15F6CF8D810E94CE0C0023C1
:101B600061F08D81805E883018F01D81111133C0C5
:101B7000802F0E94E1150E941D1698E0A91AB10855
:101B8000E4E0AE16B10420F40E94DD0A0E9459037D
:101B9000EE2009F4BCC10E94AC1580FDB8C1F6016D
:101BA00012820E94A6150E94B313C6010E94AE0FB6
:101BB0000E94A6150F900F900F900F900F90DF913D
:101BC000CF911F910F91FF90EF90DF90CF90BF903A
:101BD000AF900C94E413802F0E94F215CCCF298192
:101BE0002F70F22E3981307F303219F0F29480EF6D
:101BF000F8228D81882369F0813049F1112391F118
:101C0000002351F1F601858180FF9ECF8F7085837F
:101C100023C0112381F0011106C00E9400168F29F4
:101C20000E94430DAACF0130C1F70E9400168F29F0
:101C30000E940616A2CF011106C00E9413168F2D16
:101C40000E944A0D9ACF013009F497CFF6CF1123A5
:101C500029F0063008F091CF8F2DE2CF053008F043
:101C60008CCFEDCF002359F30D81093349F41FEFD9
:101C700027EE33E0115020403040E1F700C0000073
:101C80008D810E94CE0C79CF89818695869583704F
:101C900069F0813009F071CF8D81998193701111B4
:101CA00002C090E080E00E94190B67CF8D8199817E
:101CB0009370111102C090E080E00E94030B5DCF91
:101CC0008D81112329F00E940F070E94E20755CF52
:101CD0000E946907FACF8981837009F050C0111101
:101CE0004CCF2D81229526952770220F220F8D81B2
:101CF0008F7090E0B0E0A0E0022E04C0880F991F22
:101D0000AA1FBB1F0A94D2F70D8140E050E0BA0130
:101D100004FF0FC04FE050E060E070E004C0440FEB
:101D2000551F661F771F2A95D2F7409550956095ED
:101D3000709519811695169513701D838A019B0164
:101D4000082B192B2A2B3B2B09831A832B833C83CB
:101D50001D8169817A818B819C81123051F0133011
:101D600059F0113019F00E94291307CF0E94011376
:101D700004CF0E94511301CF0E94FF12FECE869520
:101D8000112311F089818170882309F4F6CE2D8109
:101D9000229526952770220F220F8D818F7090E05B
:101DA000B0E0A0E0022E04C0880F991FAA1FBB1F3D
:101DB0000A94D2F70D8140E050E0BA0104FF0FC051
:101DC0004FE050E060E070E004C0440F551F661F14
:101DD000771F2A95D2F74095509560957095198197
:101DE0001695169513701D838A019B01082B192BDC
:101DF0002A2B3B2B09831A832B833C831D8169810A
:101E00007A818B819C81123051F0133059F011305E
:101E100019F00E947214B1CE0E944A14AECE0E94F4
:101E20009A14ABCE0E947D13A8CE09810F7009834E
:101E3000112329F0802F0E94B3138D81F1CE8D8163
:101E40000E944A0D89810E94E41397CE2D81223F82
:101E5000A1F160F4203FE1F0213F41F1112309F4A9
:101E600045C0011171CE89818F7124C03D81333FFE
:101E700049F1343F99F7112379F109810F710983F1
:101E8000802F0E94B31363E089810E94531675CEA0
:101E9000112341F0053008F070CE89818F710E94C6
:101EA00019146BCE063008F068CEF7CF89818F7198
:101EB000112349F20E94B31360CE89818F711123DF
:101EC000C9F3C1CF112329F089818F710E948E132C
:101ED00054CE0E94891351CE81E00E946E160230CA
:101EE00008F44BCE82E00E946E1647CE002361F0CC
:101EF0001D81193309F0C4CE2FEF37EE83E0215056
:101F000030408040E1F7BACE89818F719CCF0F902D
:101F10000F900F900F900F90DF91CF911F910F9125
:101F2000FF90EF90DF90CF90BF90AF9008950F9308
:101F30001F93CF93DF93EC01688179818A810E949E
:101F400068158C010E94C2140E94FE12B801CE01D5
:101F5000DF91CF911F910F910C94510DCF93DF938F
:101F6000EC018B819C81892B29F0888199818923BF
:101F70008F3F59F4DF91CF910895CE010E94970FC2
:101F8000CE01DF91CF910C940A02CE010E942D0266
:101F90008111F3CF0E94B015882361F38A818823D1
:101FA00049F382E0DF91CF910C946E1690E080E0CF
:101FB0000E94030B90E080E00E94190B0E94FA152A
:101FC0000E94FD150E941D160E940C090C94E20748
:101FD0000E94A0150C94D60F0E94E9150C94E80FEE
:101FE000282F892F82958F70903C80F48A30B0F42E
:101FF000843020F4823090F480E008958630E1F758
:1020000081E0283E88F0213FB9F70EC08C3011F0F6
:102010008F3091F793FB882780F9089581E0203F66
:1020200039F018F4283E40F70895243F29F7FCCFF3
:1020300008950E945C150C94F00FCF93DF9300D0AD
:1020400000D00F92CDB7DEB70F900F900F900F908A
:102050000F90DF91CF910895CF93DF9300D000D000
:1020600000D0CDB7DEB726960FB6F894DEBF0FBE10
:10207000CDBFDF91CF9108951F93CF93DF93E09170
:102080009E0116E080919F018E1304C0DF91CF91D5
:102090001F910895CE2FD0E01E9FF0011124E0562D
:1020A000FE4F4081518162817381848195810E94BC
:1020B0002C10FE013196E770E5CF4091D001509190
:1020C000D1016091D2017091D3018091D40190919E
:1020D000D5010C942C101F93CF93DF938091D501E1
:1020E000807FA9F48091D201882389F080919E019C
:1020F000C0919F016091D0017091D101A091D30155
:10210000B091D401D62FD72316E0C81304C0DF91B5
:10211000CF911F91089590E0109711F0DF3F19F4CF
:1021200001968770F2CF189F9001199F300D1124EE
:10213000F901E056FE4F41814713F2CF408146132B
:10214000EFCF42814111ECCF438154814A1B5B0B9D
:10215000483C510528F78091D5018F7080618093AC
:10216000D501F901EB55FE4F80818F70806180832E
:1021700080ED91E00E94AE0FDF91CF911F910C9402
:102180003C10AF92BF92CF92DF92EF92FF920F93EB
:102190001F93CF93DF93CDB7DEB72B970FB6F8948D
:1021A000DEBF0FBECDBF8C0185E0F801DE011796C2
:1021B00001900D928A95E1F7F80140815181E2800A
:1021C00080EDC82E81E0D82E6091D3017091D401AA
:1021D0006115710509F444C19091D0012091D1019C
:1021E000822F89238F3F09F43BC1A380B480F090F4
:1021F000D201F501E61BF70BFF2009F4E0C0809146
:10220000D501382F307FE83CF10508F0B2C031111C
:1022100079C0FE2C251323C0941321C0E1101FC0E8
:102220008F7080618093D5010E945D10C6010E946D
:10223000AE0F8091D501F80185838F2D2B960FB6B7
:10224000F894DEBF0FBECDBFDF91CF911F910F91EC
:10225000FF90EF90DF90CF90BF90AF900895AB28A4
:1022600029F0842F85238F3F09F016C180E0F82FD5
:10227000F170DF2EE0919E0120919F0136E080FDFC
:102280001CC0EE20D1F28091D50181608093D501F0
:10229000F12CD3CF8E2F90E03E9FF0011124E05619
:1022A000FE4F6181651306C06081641303C06281C3
:1022B000E612E7CFFC013196E770E213EBCF4F83D4
:1022C00058878F8198850E945C15292F22952F7041
:1022D000903260F0225F2F70223078F49F7051F0BE
:1022E000F8019581907F31F4D12C0AC09F7011F0D4
:1022F0008823D1F3805E8830B8F3C8010E94AE0F06
:10230000FD2C9BCF251306C0941304C0F801EE20CA
:1023100009F470C04F8358878F8198850E941910E7
:10232000882319F1EE2009F18091D501803270F0F7
:102330002091D0013091D1013A8329831B82BD8243
:10234000AC828E83CE0101960E94AE0F86E0F8012A
:10235000A0EDB1E001900D928A95E1F70E946B101B
:102360000E945D10FF24F39468CFC8010E94AE0F55
:10237000F9CF311113C07A2DBB86AA866E2D8B85BD
:102380000E941D1080ED91E00E94AE0F86E0F601E4
:1023900011928A95E9F70E945D107ACF2513BACF82
:1023A0009413B8CFE110B6CFF8018583C8010E941D
:1023B000AE0F86E0F60111928A95E9F73ECFE83C30
:1023C000F10508F040C0FE2CEE2079F225132AC05A
:1023D000941328C08091D50180FD1BC0982F907F59
:1023E000C1F0F8018583903F31F0982F907F905F86
:1023F0008F70892B8583C8010E94AE0F86E0F8019B
:10240000A0EDB1E001900D928A95E1F70E945D1078
:1024100014CF86E0F801A0EDB1E001900D928A950D
:10242000E1F70BCF4F8358878F8198850E94191051
:1024300081118CCF8091D50181608093D501C80135
:102440000E94AE0FFACE7A2DBB86AA866E2D8B85A2
:102450000E941D1086E0F60111928A95E9F7D6CF09
:10246000EE2009F482CF4F8358878F8198850E9490
:102470001910F82E882309F478CF86E0F801A0ED32
:10248000B1E001900D928A95E1F780ED91E00E9414
:10249000380C0E946B10BACF81E08E25E8CE1F93D6
:1024A000CF93DF93CDB7DEB72C970FB6F894DEBF8E
:1024B0000FBECDBF4F83588769877A878B879C87EC
:1024C000CE0107960E94C110882369F08A859B85FA
:1024D000892B39F04F815885842F85238F3F09F050
:1024E00077C016E065C086E0FE013796DE011196E2
:1024F00001900D928A95E1F76A857B8561157105DA
:1025000081F35F814885842F85238F3F51F320918C
:102510009F0130E0C901019687709927E0919E01E3
:10252000E817190671F40E94EC0F10929F011092A7
:102530009E0186E0E0EDF1E0DF011D928A95E9F76A
:10254000D0CF59834A837D836C8396E0929FD001DC
:10255000939FB00D1124A056BE4FFE0131960190FD
:102560000D929A95E1F780939F010E943C10B9CF9C
:10257000819FC001112480569E4F0E94C110882364
:10258000E9F0E0919E011E9FF0011124E056FE4FFC
:102590004081518162817381848195810E942C10D8
:1025A00080919E0190E001968770992780939E010B
:1025B00080919E0190919F018913DACF2C960FB6DE
:1025C000F894DEBF0FBECDBFDF91CF911F9108956C
:1025D00069857A858B859C850E942C1082CF089511
:1025E0000C94EF120E94F0126093DF017093E001EF
:1025F0008093E1019093E2010C94D60F08950C941E
:10260000F212CF93DF9300D000D0CDB7DEB769834D
:102610007A838B839C838091DF019091E001A0916C
:10262000E101B091E20129813A814B815C81282B43
:10263000392B4A2B5B2B29833A834B835C83CA015A
:10264000B9010F900F900F900F90DF91CF910C94E4
:10265000F212CF93DF9300D000D0CDB7DEB76983FD
:102660007A838B839C838091DF019091E001A0911C
:10267000E101B091E20129813A814B815C812823FB
:1026800039234A235B2329833A834B835C83CA0122
:10269000B9010F900F900F900F90DF91CF910C9494
:1026A000F212CF93DF9300D000D0CDB7DEB76983AD
:1026B0007A838B839C838091DF019091E001A091CC
:1026C000E101B091E20129813A814B815C812827A7
:1026D00039274A275B2729833A834B835C83CA01C6
:1026E000B9010F900F900F900F90DF91CF910C9444
:1026F000F2120C94EF120C9479130E947B136093E6
:10270000DB017093DC018093DD019093DE010C947A
:10271000D60F60E070E0CB010C947D130F931F93F4
:10272000CF93DF9300D000D0CDB7DEB741E050E0CB
:1027300060E070E08A019B0104C0000F111F221F9E
:10274000331F8A95D2F709831A832B833C83C901EF
:10275000B8010F900F900F900F90DF91CF911F91C4
:102760000F910C947D130F931F93CF93DF9300D0A1
:1027700000D0CDB7DEB741E050E060E070E004C0CB
:10278000440F551F661F771F8A95D2F78091DB0192
:102790009091DC01A091DD01B091DE018A019B01E5
:1027A000082B192B2A2B3B2B09831A832B833C8361
:1027B000C901B8010F900F900F900F90DF91CF914A
:1027C0001F910F910C947D130F931F93CF93DF9361
:1027D00000D000D0CDB7DEB741E050E060E070E05F
:1027E00004C0440F551F661F771F8A95D2F7409586
:1027F0005095609570958091DB019091DC01A091DE
:10280000DD01B091DE018A019B01082319232A23EF
:102810003B2309831A832B833C83C901B8010F90A2
:102820000F900F900F90DF91CF911F910F910C940B
:102830007D130F931F93CF93DF9300D000D0CDB7BC
:10284000DEB741E050E060E070E004C0440F551F87
:10285000661F771F8A95D2F78091DB019091DC018A
:10286000A091DD01B091DE018A019B0108271927A3
:102870002A273B2709831A832B833C83C901B8018C
:102880000F900F900F900F90DF91CF911F910F91AC
:102890000C947D13CF93DF9300D000D0CDB7DEB77B
:1028A00069837A838B839C838091DB019091DC0127
:1028B000A091DD01B091DE0129813A814B815C81DB
:1028C000282B392B4A2B5B2B29833A834B835C8340
:1028D000CA01B9010F900F900F900F90DF91CF9127
:1028E0000C947D13CF93DF9300D000D0CDB7DEB72B
:1028F00069837A838B839C838091DB019091DC01D7
:10290000A091DD01B091DE0129813A814B815C818A
:10291000282339234A235B2329833A834B835C830F
:10292000CA01B9010F900F900F900F90DF91CF91D6
:102930000C947D13CF93DF9300D000D0CDB7DEB7DA
:1029400069837A838B839C838091DB019091DC0186
:10295000A091DD01B091DE0129813A814B815C813A
:10296000282739274A275B2729833A834B835C83AF
:10297000CA01B9010F900F900F900F90DF91CF9186
:102980000C947D130895292F220FE22FE90FE80FF1
:102990008E2F877041E001C0440F8A95EAF7E695D3
:1029A000E695E69585E0E89FF0011124EA52FE4F96
:1029B00030E020E070E05191DF011197CB01022E51
:1029C00002C0969587950A94E2F7817081958527D4
:1029D000842385278C932F5F3F4F2530310559F78E
:1029E0000895292F220FE22FE90FE80F9E2F9770ED
:1029F000E695E695E69585E0E89FF0011124EA5218
:102A0000FE4F50E040E080E0219130E0092E02C00E
:102A1000369527950A94E2F721703327042E01C0DA
:102A2000220F0A94EAF7822B4F5F5F4F4530510522
:102A300059F70895BF92CF92DF92EF92FF920F93D2
:102A40001F93CF93DF938C01C090DB01D090DC010A
:102A5000E090DD01F090DE018091DF019091E001D6
:102A6000A091E101B091E201C82AD92AEA2AFB2A01
:102A7000CFE1D0E0BC2ED701C6010C2E04C0B69524
:102A8000A795979587950A94D2F780FD0EC0219758
:102A900088F7B12C8B2DDF91CF911F910F91FF9073
:102AA000EF90DF90CF90BF900895B8018C2F0E94D7
:102AB0007503019761F3EECFCF93DF93D82FC92F22
:102AC0000E941A156D2F7C2FDF91CF910C94750306
:102AD0001F93CF93DF93162FD72F90919D019923AA
:102AE00039F0862F972FDF91CF911F910C945C15B1
:102AF000882391F0862F972F0E941A15C82F682FD0
:102B0000812F9D2F0E94C314612F7D2F8C2FDF9169
:102B1000CF911F910C947503862F972F0E94F1146B
:102B2000C82FF2CF682F80910801909109010C9471
:102B30008A17682F80910801909109010C948C17D5
:102B400080910801909109010C948E178091E30106
:102B500085958595859508958091E3018770089501
:102B60009091E301977081E009F480E008959091DD
:102B7000FD0192FB222720F9281751F080FB92F9E2
:102B80009093FD018091FC019091FD010C94B3168E
:102B900008958091FD0182FB882780F991E08927C3
:102BA0000C94B71581E00C94B71580E00C94B71520
:102BB0008091EF0108959091EF01982B9093EF0190
:102BC0000895982F90958091EF0189238093EF01CC
:102BD00008951092EF0108959091EE01982B909333
:102BE000EE010895982F90958091EE0189238093AE
:102BF000EE0108951092EE0108951092ED010895EE
:102C00008091E401089508950C9403169091FD01BC
:102C100092FD08C09091E401981721F08093E4019F
:102C20000C94041608958091E401882329F01092F1
:102C3000E40180E00C9404160895E0910801F091FD
:102C400009018091EF018083E0910801F091090171
:102C500080819091EE01892B8083E0910801F091B1
:102C6000090180819091ED01892B80839091E4018D
:102C7000992381F0E0910801F09109018081892B6D
:102C8000808380910801909109010E943E17811173
:102C90000E94131680910801909109010C94E90A91
:102CA00008950C9450169091FD0192FD10C098E08B
:102CB000899F90011124622B6093E3010E94B3135A
:102CC0008091E3018595859585950C9451160C941A
:102CD000B3131092E30180E00C9451169091E3013C
:102CE000809589238093E301282F277039F4282FBA
:102CF000082E000C330B9217130621F49091FD015E
:102D000092FF07C08595859585950E94E4130C94E4
:102D10006916089580E008956FEF7FEF90E080E0FE
:102D20000C94A01F90E080E00E947C1F9C0181E039
:102D30002A3E3E4F09F080E0089582E090E00C9436
:102D4000741F83E090E00C94741FCF9384E090E0B4
:102D50000E94741FC82F82E290E00E94741F982F77
:102D60008C2FCF910895CF93682FC92F84E090E0E6
:102D70000E94821F6C2F82E290E0CF910C94821F00
:102D8000AB01BC018FE090E00C94941FAB01BC013F
:102D900083E190E00C94941F60E070E0CB010C9410
:102DA000C61660E070E0CB010E94C0160C94CC16F1
:102DB0006AEE7EEF90E080E00E94A01F60E082E07B
:102DC00090E00E94821F60E083E090E00E94821FFA
:102DD0001092DF011092E0011092E1011092E201E5
:102DE00060E084E090E00E94821F60E082E290E078
:102DF0000E94821F60E085E090E00E94821F60E0F8
:102E000086E090E00E94821F6FEF87E090E00E94D2
:102E1000821F40E050E0BA0188E090E00E94941FD9
:102E200060E08DE090E00E94821F40E050E0BA0137
:102E300088E190E00E94941F60E087E190E00E94AA
:102E4000821F40E050E0BA018CE190E00E94941FA4
:102E500070E060E080E290E00E94A01F40E050E05F
:102E6000BA0188E190E00E94941F0C94D1160C9452
:102E7000D816682F8EE090E00C94821FAC019C0164
:102E80002E5F3F4F485F5F4F80E02417350709F4FE
:102E90000895F90191919F019923B9F38F5FF5CFBF
:102EA0009C01662351F0FC013296285F3F4F8191CF
:102EB000861729F0E217F307D1F780E0089581E043
:102EC00008959C01FC0132968FEF90E041914617E6
:102ED00051F08F3F19F4411101C0892F9F5F963047
:102EE000A9F78F3F09F40895280F311D87FD3A9502
:102EF000F901628308959C01FC013296285F3F4FDF
:102F00008191861303C0DF0111971C92E217F3072A
:102F1000B9F708950C9461170C947B17FC01329655
:102F200086E0DF011D928A95E9F7089508950895D6
:102F30000C94971780910A02843049F10E949817E7
:102F400080E00E9459031092F10188E190E020E4B2
:102F50000FB6F894A895809360000FBE2093600090
:102F600083B7817F846083BF83B7816083BF789498
:102F7000889583B78E7F83BF0FB6F894A89580910C
:102F80006000886180936000109260000FBE089519
:102F900008950E9496170E94DE050E94C81780E0DF
:102FA0000E949905811109C081E00E949905982F1E
:102FB00081E0911103C080E0089581E008950895B3
:102FC0000C94DF170E94EC0F0E94DD0A0E94590347
:102FD0000C94E0171F921FB61F9211248F939F939A
:102FE000AF93BF938091F101811113C080910202D0
:102FF00090910302A0910402B09105024196A11D97
:10300000B11D8093020290930302A0930402B09337
:103010000502BF91AF919F918F911F901FBE1F908E
:10302000189582E084BD93E095BD9AEF97BD80939B
:103030006E0008952FB7F8948091020290910302D8
:10304000A0910402B09105022FBF0895CF93DF93A2
:1030500000D000D0CDB7DEB78FB7F8942091020230
:1030600030910302409104025091050229833A8372
:103070004B835C838FBF69817A818B819C810F90A8
:103080000F900F900F90DF91CF9108959C014FB753
:10309000F8948091020290910302A0910402B091F1
:1030A00005024FBF821B930B089578941F921FB6A1
:1030B0001F9211248F939F93AF93BF93809102022D
:1030C00090910302A0910402B09105020196A11D06
:1030D000B11D8093020290930302A0930402B09367
:1030E0000502BF91AF919F918F911F901FBE1F90BE
:1030F000189581E08093E00080E28093D8001092E0
:10310000C9008FE19EE40197F1F700C0000087E05D
:1031100090EBDC018093130290931402A0931502AC
:10312000B093160288E19CE00FB6F894A8958093BE
:1031300060000FBE90936000FFCF90937701809363
:10314000760108958091FA010895CF93DF9300D01E
:103150000F92CDB7DEB790910A02943019F58983AA
:103160006A837B8382E08093E9008FEF9091E8008F
:10317000815095FD06C095ED9A95F1F700008111FB
:10318000F5CF8091E80085FF0DC050E040E063E09E
:1031900070E0CE0101960E94BE1A8091E8008E7701
:1031A0008093E8000F900F900F90DF91CF910895DA
:1031B000BC0184E00C94A518BC0183E00C94A51814
:1031C00022E02093E9002FEF3091E800215035FDF7
:1031D00006C035ED3A95F1F700002111F5CF2091A9
:1031E000E80025FF0BC050E040E066E070E00E9480
:1031F000BE1A8091E8008E778093E8000895CF93FF
:10320000DF93D82FC92F81E08093E9008FEF909151
:10321000E800815095FD06C095ED9A95F1F7000004
:103220008111F5CF8091E80085FF16C050E040E0A5
:1032300068E070E08D2F9C2F0E94BE1A8091E800FC
:103240008E778093E80088E0ED2FFC2FA2EFB1E0AD
:1032500001900D928A95E1F7DF91CF9108958091C9
:103260000902811109C00E94461C0E94A31C809182
:10327000E20084608093E2000895109209020895AC
:1032800008950895089542E061EC81E00E94C21B18
:1032900042E261EC82E00C94C21B80910C02893006
:1032A00089F148F4823009F49DC0833009F458C094
:1032B000813041F008958A3009F484C08B3009F4DC
:1032C0006AC0089580910B02813A09F048C080914C
:1032D000E800877F8093E80080910F0290911002B0
:1032E000892B61F468E082EF91E070E00E940D1B91
:1032F0008091E8008B778093E800089560E090E08B
:1033000080E0F3CF80910B02813249F580910F026A
:1033100090911002029718F58091E800877F8093C2
:10332000E8008091E80082FF16C09091F300809140
:10333000F200029729F48091F1008B7F813021F413
:103340008091F1008093FA018091E8008B7780935F
:10335000E8000C94F61B80910A028111E2CF0895D7
:1033600080910B02813AD9F780910F02909110025F
:10337000892BA9F78091E800877F8093E8008091EE
:10338000E80080FFFCCF809114018093F1008091D0
:10339000E8008E77DCCF80910B02813201F78091BB
:1033A0000F0290911002892BD1F68091E800877F5F
:1033B0008093E8000E94F61B80910D028093140117
:1033C0000C94EC0F80910B02813249F68091E80059
:1033D000877F8093E8000E94F61B80910E02809305
:1033E000FB01089580910B02813A09F0B8CF8091DA
:1033F000E800877F8093E8008091E80080FFFCCFA1
:103400008091FB01C2CF84B7877F84BF0FB6F89449
:10341000A8958091600088618093600010926000A0
:103420000FBE80E890E00FB6F8948093610090930F
:1034300061000FBE0E94500B0E94461C0E94A31CFC
:103440008091E20084608093E20078940E942B1FB8
:103450000E94640B8AE091E00E94D80A80910A02DF
:10346000853099F00E946A0B0E94600BF7CF0E9492
:103470009A1780910802882341F00E94C917882377
:1034800021F00E94A81A0E94EC0F80910A02853058
:1034900071F30E94E217E6CF0C944E1AFC01CB01A7
:1034A000DA012F2F332723303105D1F070F421308A
:1034B000310509F43EC02230310569F48BE390E018
:1034C00021EC31E02D933C93089521323105E9F050
:1034D0002232310521F190E080E030E020E0F2CFAF
:1034E000CF019927E13059F08230910559F0EDEB89
:1034F000F1E0892B81F7849190E09F01E3CFEFEA1F
:10350000F1E0F9CFE1EAF1E0F6CF892BB9F06130D3
:10351000710509F789E090E02CEE31E0D3CF892BDB
:1035200091F061307105B9F68BE790E02EE032E062
:10353000C9CF82E190E02CEF31E0C4CF89E090E088
:1035400023ED31E0BFCF80E490E029E832E0BACF4C
:1035500080E189BD82E189BD09B400FEFDCF809183
:10356000D8008F7D8093D8008091E00082608093A6
:10357000E0008091E00081FDFCCF0895AF92BF9202
:10358000CF92DF92FF920F931F93CF93DF936C0143
:10359000EB018A010E94151CF82E811123C0011530
:1035A000110539F0F80180819181C81BD90BC80E33
:1035B000D91EB12CA12C2097A9F08091E80085FD9F
:1035C00022C08091E8008E778093E80001151105F4
:1035D000A1F0F80180819181A80EB91EB182A0826C
:1035E00085E0F82E8F2DDF91CF911F910F91FF90E5
:1035F000DF90CF90BF90AF9008950E94151C882354
:10360000D1F2F82EEFCFF60181916F018093F10096
:103610002197FFEFAF1ABF0ACECFFC01CB0120915B
:103620001102309112022617370790F0009729F403
:103630002091E8002E772093E80040E0009751F4B5
:10364000411108C08091E80082FF31C080E00895F8
:10365000C901F3CF20910A022223A9F12530A9F153
:103660002091E80023FD2DC02091E80022FDEACF43
:103670002091E80020FFE2CF3091F3002091F2008A
:10368000009719F02830310558F041E02830310515
:1036900009F040E02091E8002E772093E800CECF9B
:1036A00041914093F10001972F5F3F4FE9CF809107
:1036B0000A02882341F0853041F08091E80083FFC1
:1036C000C1CF81E0089582E0089583E00895FC0170
:1036D000CB0120911102309112022617370790F08A
:1036E000009729F42091E8002E772093E80040E02D
:1036F000009751F4411108C08091E80082FF32C068
:1037000080E00895C901F3CF20910A022223B1F18C
:103710002530B1F12091E80023FD2EC02091E80072
:1037200022FDEACF2091E80020FFE2CF3091F300A4
:103730002091F200009719F02830310558F041E04F
:103740002830310509F040E02091E8002E772093E1
:10375000E800CECF44914093F100319601972F5F5E
:103760003F4FE8CF80910A02882341F0853041F035
:103770008091E80083FFC0CF81E0089582E0089542
:1037800083E00895982F973028F08F708093E90098
:1037900081E008959093E900242F762F50E0981748
:1037A00031F07091EC002091ED005091F00021FD7E
:1037B00002C09F5FE8CF3091EB003E7F3093EB007B
:1037C0003091ED003D7F3093ED003091EB003160A2
:1037D0003093EB007093EC002093ED005093F000D9
:1037E0002091EE0027FDE5CF80E0089580910B0247
:1037F00087FF13C08091E80082FF06C08091E80037
:103800008B778093E80004C080910A028111F2CF87
:10381000089580910A028823D9F38091E80080FFFF
:10382000F8CF8091E8008E77ECCF2091E4003091C2
:10383000E50095E6A9012091EC00822F817020FF20
:1038400006C08091E80080FF06C080E008952091C6
:10385000E80022FD1AC080910A02882389F0853091
:1038600089F08091EB0085FD0FC02091E40030913C
:10387000E50042175307F9F29150E1F684E008950C
:1038800082E0089583E0089581E008950E94B41CC9
:103890000E94BC1CE0EEF0E0808181608083E8ED56
:1038A000F0E080818F77808319BCA7EDB0E08C9128
:1038B0008E7F8C9380818F7E808310920902089581
:1038C0000F931F93CF93DF930E94B41C0E94BC1CE4
:1038D000C8EDD0E088818F7788838881806888836D
:1038E00088818F7D888319BC10920A02109206028B
:1038F000109208021092070200EE10E0F801808199
:103900008B7F808388818160888342E060E080E0F3
:103910000E94C21BE1EEF0E080818E7F8083E2EEA8
:10392000F0E0808181608083808188608083F801FD
:1039300080818E7F8083888180618883DF91CF91B1
:103940001F910F910895E8EDF0E080818F7E8083D4
:10395000E7EDF0E080818160808384E082BF81E0D8
:10396000809309020C94601CE8EDF0E080818E7F6A
:1039700080831092E20008951092DA001092E10024
:1039800008951F920F920FB60F9211242F933F9319
:103990004F935F936F937F938F939F93AF93BF9357
:1039A000EF93FF938091E10082FF0BC08091E200D2
:1039B00082FF07C08091E1008B7F8093E1000E942D
:1039C0002A1F8091DA0080FF19C08091D80080FF03
:1039D00015C08091DA008E7F8093DA008091D90043
:1039E00080FF94C080E189BD82E189BD09B400FEF9
:1039F000FDCF81E080930A020E942F198091E1009F
:103A000080FF19C08091E20080FF15C08091E20024
:103A10008E7F8093E2008091E20080618093E200DB
:103A20008091D80080628093D80019BC85E0809393
:103A30000A020E9441198091E10084FF29C080910F
:103A4000E20084FF25C080E189BD82E189BD09B41F
:103A500000FEFDCF8091D8008F7D8093D8008091AB
:103A6000E1008F7E8093E1008091E2008F7E809361
:103A7000E2008091E20081608093E2008091060282
:103A8000882309F449C084E080930A020E94421905
:103A90008091E10083FF29C08091E20083FF25C06F
:103AA0008091E100877F8093E10082E080930A02A9
:103AB000109206028091E1008E7F8093E100809158
:103AC000E2008E7F8093E2008091E200806180932B
:103AD000E20042E060E080E00E94C21B8091F000C2
:103AE00088608093F0000E944019FF91EF91BF9190
:103AF000AF919F918F917F916F915F914F913F9186
:103B00002F910F900FBE0F901F90189519BC109217
:103B10000A020E943D1972CF8091E30087FD02C026
:103B200081E0B2CF83E0B0CF1F920F920FB60F9219
:103B300011242F933F934F935F936F937F938F93B2
:103B40009F93AF93BF93CF93DF93EF93FF93D09166
:103B5000E900DF708091EC00C82FC17080FDC0E8E3
:103B60001092E9008091F000877F8093F0007894B4
:103B70000E94D81D1092E9008091F0008860809327
:103B8000F000CD2BCF70C093E900FF91EF91DF9152
:103B9000CF91BF91AF919F918F917F916F915F91E5
:103BA0004F913F912F910F900FBE0F901F9018953E
:103BB0001F93CF93DF93CDB7DEB7AA970FB6F894D4
:103BC000DEBF0FBECDBF8BE092E0FC0101962091DD
:103BD000F100208322E083319207B9F70E944D194A
:103BE0008091E80083FF1EC180910B0290910C022E
:103BF0009A3008F017C1E92FF0E0E052F04E0C9433
:103C00005A1F803899F0823809F00CC180910F0258
:103C10008F70873008F006C18093E9008091EB0037
:103C200085FB882780F91092E90006C08091070281
:103C300090910802911182609091E800977F909393
:103C4000E8008093F1001092F1008091E8008E77F7
:103C5000E5C0882309F4D3C0823009F0E3C0809125
:103C60000D028111D6C080910F028F702FEF280FA7
:103C7000263008F0D7C08093E9002091EB0020FFA8
:103C8000C8C0933031F48091EB0080628093EB00E8
:103C9000C0C09091EB0090619093EB0021E030E088
:103CA00001C0220F8A95EAF72093EA001092EA00F9
:103CB0008091EB008860EACF8111B4C010910D02B1
:103CC0001F778091E3008078812B8093E3008091BF
:103CD000E800877F8093E8000E94F61B8091E8004F
:103CE00080FFFCCF8091E30080688093E30082E056
:103CF000111183E080930A0295C08058823008F049
:103D000091C080910D0290910E028C3D23E09207AC
:103D1000A1F583E08A838AE289834FB7F894DE01B4
:103D2000139620E03EE051E2E32FF0E0509357007D
:103D3000E49120FF03C0E295EF703F5FEF708E2F9C
:103D400090E0EA30C0F0C7968D939D932F5F2431A9
:103D500059F74FBF8091E800877F8093E8006AE2BF
:103D600070E0CE0101960E940D1B8091E8008B77D8
:103D70008093E80057C0C096E7CF60910F02709122
:103D80001002AE014F5F5F4F0E944C1ABC01892B9D
:103D900009F448C08091E800877F8093E80089811A
:103DA0009A810E94671BE1CF8038E1F58091E8009D
:103DB000877F8093E800809106028093F10045CFD1
:103DC000811130C090910D02923060F58091E80031
:103DD000877F8093E800909306020E94F61B8091F3
:103DE0000602882311F084E005C08091E30087FD7E
:103DF000FACF81E080930A020E94431913C0809198
:103E00000D02813079F481E0933009F080E08093F5
:103E100008021092E9008091E800877F8093E80013
:103E20000E94F61B8091E80083FF0AC08091E800A1
:103E3000877F8093E8008091EB0080628093EB00A5
:103E4000AA960FB6F894DEBF0FBECDBFDF91CF911B
:103E50001F9108950895CF9380910A028823A1F0BD
:103E6000C091E900CF709091EC00892F817090FD96
:103E700080E8C82B1092E9008091E80083FD0E9441
:103E8000D81DCF70C093E900CF91089597FB072EFE
:103E900016F4009407D077FD09D00E94601F07FC3C
:103EA00005D03EF4909581959F4F0895709561954A
:103EB0007F4F0895EE0FFF1F0590F491E02D0994B8
:103EC000AA1BBB1B51E107C0AA1FBB1FA617B70740
:103ED00010F0A61BB70B881F991F5A95A9F780955C
:103EE0009095BC01CD010895F999FECF92BD81BD99
:103EF000F89A992780B50895A8E1B0E042E050E033
:103F00000C94A81F262FF999FECF92BD81BDF89A77
:103F1000019700B4021639F01FBA20BD0FB6F8940D
:103F2000FA9AF99A0FBE08950396272F0E94831FCD
:103F30000E94821F252F0E94831F242F0C94831F11
:103F40000196272F0E94831F0C94821FDC01CB0156
:103F5000FC01F999FECF06C0F2BDE1BDF89A319699
:103F600000B40D9241505040B8F70895F894FFCF37
:103F7000230A290A2D0A3B0A3F0A430A470A4D0A27
:103F8000550A590A5D0A610A6D0A710A750A790AA9
:103F90007F0A9D0A870A310A370A650A690A510AA7
:103FA000830A930AA60AAA0A8D0D8D0DEF0DEF0D57
:103FB000440E600EBD0DBD0D6B0E150F260F260FA6
:103FC000011E291E121F291E121F5C1E7D1E121F9C
:043FD000D41EE01EFD
:103FD4002808641E140A321EE501A218FF18E0180E
:103FE400DC18D81801E200E900EA00B500B600B711
:103FF40000CD008301CC008A0192019401210223A7
:104004000224022502260227022A02B300B4006F0A
:10401400007000F1F0309095E200E900EA00B5008C
:10402400B600B700CD008301CC008A01920194014F
:104034002102230224022502260227022A02B300B7
:06404400B4006F007000E3
:00000001FF
